:100000009CC20000C9C20000C7C20000C5C20000F7
:10001000C3C20000C1C20000BFC20000BDC20000D8
:10002000BBC20000B9C20000B7C20000B5C20000E8
:10003000B3C200000C94F821AFC20000ADC20000B2
:10004000ABC20000A9C20000A7C20000A5C2000008
:10005000A3C2000043C400009FC200009DC2000074
:100060009BC2000099C2000097C2000095C2000028
:1000700093C2000091C200008FC200008DC2000038
:100080008BC2000089C2000087C2000085C2000048
:100090000C94C5220C94A9227FC200007DC20000EE
:1000A0007BC2000079C200000C94E72175C20000F9
:1000B00073C2000071C200006FC200006DC2000078
:1000C0006BC2000069C2000067C2000065C2000088
:1000D00063C2000061C200005FC200005DC2000098
:1000E0005BC2000059C2000057C2000055C20000A8
:1000F00053C2000051C200004FC200004DC20000B8
:100100004BC2000049C2000047C2000045C20000C7
:1001100043C2000041C200003FC200003DC20000D7
:100120003BC2000039C2000037C2000035C20000E7
:1001300033C20000D620D920E820E320ED20F220B1
:10014000F72005211A2129212C213021D420342106
:1001500037213D213E3E20557074696D6520256C28
:1001600075207365630D0A003E3E2046726565206A
:1001700052414D2069733A20256420627974657379
:100180000D0A002D2D4D51545420436F6E6E656342
:10019000746564204552524F523A20256C640D0A12
:1001A0000053756273637269626564202825732940
:1001B0002025640D0A002B2B4D51545420436F6EA3
:1001C0006E656374656420535543434553533A2029
:1001D000256C640D0A003E3E547279696E67206397
:1001E0006F6E6E65637420746F204D51545420629D
:1001F000726F6B65723A2025642E25642E25642E5D
:100200002564202E2E0D0A003E3E20467265652094
:1002100052414D2069733A202564206279746573D8
:100220000D0A003E3E204D43552069733A20255368
:100230003B20434C4B2069733A20256C75487A0D5E
:100240000A00436F6D70696C65642061743A202503
:10025000532025530D0A00255300444E5320536567
:1002600072766572203A2025642E25642E25642E30
:1002700025640A0D0047617465207761792020208C
:100280003A2025642E25642E25642E25640A0D004F
:10029000534D204D61736B092020203A2025642E98
:1002A00025642E25642E25640A0D004950206164C2
:1002B0006472657373203A2025642E25642E2564AC
:1002C0002E25640A0D004D616320616464726573BC
:1002D000733A20253032783A253032783A25303258
:1002E000783A253032783A253032783A25303278EB
:1002F0000A0D00444843502049500D0A0053544110
:100300005449432049500D0A003D3D3D3D3D3D3D92
:100310003D3D3D3D3D3D3D3D3D3D3D3D3D3D3D3D0D
:100320003D3D3D3D3D3D3D3D3D3D3D3D3D3D3D3DFD
:100330000D0A002057495A6E657420636869703A47
:1003400020202573200D0A000D0A3D3D3D3D3D3D19
:100350003D3D3D3D3D3D3D3D3D3D3D3D3D3D3D3DCD
:100360003D3D3D3D3D3D3D3D3D3D3D3D3D3D3D3DBD
:100370003D0D0A000D0A0044484350204C454153AE
:1003800045442054494D45203A20256C642053654E
:10039000632E0D0A00436F6E6E656374696F6E2085
:1003A00077697468204D5154542042726F6B6572A6
:1003B00020776173206C6F737421210D0A5265627E
:1003C0006F6F742074686520626F6172642E2E0DE9
:1003D0000A00202D204552524F520D0A00202D2098
:1003E0004F4B0D0A003E3E4D515454207075622013
:1003F0006D7367203F256C7520003C3C4D51545473
:10040000205375623A205B25735D20257300556E7D
:100410006B6E6F776E20435055000D0A41744D6529
:10042000676131323834702076312E326120537456
:1004300061746963204950204D5154542026262070
:100440004C6F6F702D6261636B2057495A4E455453
:100450005F353530302045544845524E45542030A4
:10046000372F30342F323031390D0A0031333A33DF
:10047000343A343000417072203238203230323514
:100480000025643A4F70656E65642C2055445020F9
:100490006C6F6F706261636B2C20706F7274205B85
:1004A00025755D0D0A0025643A2073656E64746FCE
:1004B000206572726F722E20256C640D0A0025640F
:1004C0003A207265637666726F6D206572726F7224
:1004D0002E20256C640D0A0025643A4C69737465FE
:1004E0006E2C2054435020736572766572206C6FB9
:1004F0006F706261636B2C20706F7274205B257566
:100500005D0D0A0025643A536F636B657420436C7C
:100510006F7365640D0A0025643A436F6E6E656300
:10052000746564202D2025642E25642E25642E25D7
:1005300064203A2025750D0A000011241FBECFEF5C
:10054000D1E8DEBFCDBF00E00CBF84B78093882424
:1005500014BE0FB6F894A8958091600088618093CE
:100560006000109260000FBE13E0A0E0B2E0EAE687
:10057000F5E800E00BBF02C007900D92AA3BB1075F
:10058000D9F724E2AAEBB3E001C01D92A838B20764
:10059000E1F75ED30C94B34233CD10929B040895DF
:1005A0005C9808955C9A08951EBC0DB407FEFDCFBB
:1005B0008EB508958EBD0DB407FEFDCF089561156B
:1005C000710561F0FC01680F791F1EBC0DB407FEB8
:1005D000FDCF9EB59193E617F707B9F7089561151A
:1005E000710559F0FC01680F791F91919EBD0DB402
:1005F00007FEFDCFE617F707C1F70895CF93809167
:100600009B04811128C0C091C003CC2321F14C2F41
:1006100050E061EC73E08EE294E00E94543FECE91C
:10062000F4E081E090E09683858383E08783808790
:1006300082E081878EE294E093878287C4878DEC85
:1006400092E096878587CF010E94C1341092C00343
:1006500081E080939B04CF910895D0CF0895CF92ED
:10066000DF92EF92FF920F931F93CF93DF93CDB75B
:10067000DEB7C05CD1090FB6F894DEBF0FBECDBFA8
:1006800020915D0230915E023A832983FE01339608
:100690004EE3DF011D924A95E9F78E010F5B1F4F74
:1006A000F8013183208332962EE7DF011D922A95CF
:1006B000E9F7FC01C080D1800280F381E02D428106
:1006C000538166817781CE0101967C010E946B3F48
:1006D000D60117964D915C91189715966D917C9166
:1006E0001697C8010E946B3F1F930F93FF92EF92E2
:1006F0008AEF93E09F938F930E948D3F0F900F900E
:100700000F900F900F900F90C054DF4F0FB6F894DA
:10071000DEBF0FBECDBFDF91CF911F910F91FF9034
:10072000EF90DF90CF9008958DE193E00E94B43F69
:10073000FFCFFF920F931F93CF93DF938C01892BF1
:10074000D1F0C0E0D0E00E948322F82E8091C00357
:100750008D3609F453DFE091C003ED3640F481E0BB
:100760008E0F8093C003F0E0EF53FC4FF082219690
:100770000C171D0741F78DEA94E00E94EF3D8DEACA
:1007800094E00E94463EDF91CF911F910F91FF9020
:100790000895AF92BF92CF92DF92EF92FF920F93A4
:1007A0001F93CF93DF93CDB7DEB729970FB6F89499
:1007B000DEBF0FBECDBF8C017B016A015901A89538
:1007C0008091BB039091BC03A091BD03B091BE0387
:1007D0000196A11DB11D8093BB039093BC03A09310
:1007E000BD03B093BE03BF93AF939F938F9385EEEA
:1007F00093E09F938F930E948D3F198280911C20DC
:1008000090911D209C012F5F3F4F30931D2020931E
:100810001C209D838C83B986A886DF82CE82AE01A0
:100820004F5F5F4FB701C8010E94B1290F900F9031
:100830000F900F900F900F90672B682B692B59F436
:100840001092BA038DED93E09F938F930E948D3F9A
:100850000F900F9019C082ED93E09F938F930E94A9
:100860008D3F8091BA0391E0980F9093BA030F9057
:100870000F90853148F085E993E09F938F930E9414
:100880008D3F0F900F90FFCF29960FB6F894DEBFE3
:100890000FBECDBFDF91CF911F910F91FF90EF90D1
:1008A000DF90CF90BF90AF900895CF93DF931F92CA
:1008B0001F92CDB7DEB780917E2490917F24009760
:1008C00011F09C0102C029E834E2CE010196821B9E
:1008D000930B0F900F90DF91CF9108951F920F927D
:1008E0000FB60F9211248F939F93AF93BF93809174
:1008F000181E9091191EA0911A1EB0911B1E0196F0
:10090000A11DB11D8093181E9093191EA0931A1E4D
:10091000B0931B1EBF91AF919F918F910F900FBE0F
:100920000F901F901895F8946091181E7091191EE1
:1009300080911A1E90911B1E78940895EAE7F0E0CA
:100940001082808187608083ACE7B0E08C91806406
:100950008C93808180688083808180648083089507
:10096000ECE7F0E09081907E90839081892B8083EA
:10097000EAE7F0E0808180648083808186FDFDCF9E
:1009800080917800909179000895CF93DF93CDB74F
:10099000DEB728970FB6F894DEBF0FBECDBF88E054
:1009A000EDE9F2E0DE01119601900D928A95E1F7F2
:1009B00062ED72E080ED92E00E949D1E6AED72E0B1
:1009C00084ED92E00E94B41E6FEE72E08FED92E033
:1009D0000E94D41EBE016F5F7F4FCB010E94601F3B
:1009E00088E092E00E944C2128960FB6F894DEBF72
:1009F0000FBECDBFDF91CF91089582E084BD83E02B
:100A000085BD89EF87BDEEE6F0E08081826080835E
:100A100008950F931F93CF93DF93CDB7DEB76D97F4
:100A20000FB6F894DEBF0FBECDBF8E010F5F1F4F14
:100A300086E0F80111928A95E9F7B80188E00E94F2
:100A4000C42088E493E09F938F930E948D3F1F936F
:100A50000F9383E393E09F938F930E948D3F89E0F0
:100A600093E09F938F930E948D3FCE0107960E9443
:100A700085210FB6F894DEBF0FBECDBF8D8D8130BE
:100A800049F48DEF92E09F938F930E948D3F0F90DA
:100A90000F9008C083EF92E09F938F930E948D3F49
:100AA0000F900F908C851F928F938B851F928F9341
:100AB0008A851F928F9389851F928F9388851F92B5
:100AC0008F938F811F928F9386EC92E09F938F93E9
:100AD0000E948D3F88891F928F938F851F928F93DD
:100AE0008E851F928F938D851F928F938BEA92E054
:100AF0009F938F930E948D3F8C891F928F938B8938
:100B00001F928F938A891F928F9389891F928F9347
:100B100080E992E09F938F930E948D3F0FB6F894E7
:100B2000DEBF0FBECDBF888D1F928F938F891F921E
:100B30008F938E891F928F938D891F928F9385E754
:100B400092E09F938F930E948D3F8C8D1F928F9385
:100B50008B8D1F928F938A8D1F928F93898D1F92F9
:100B60008F938AE592E09F938F930E948D3F0FB6FB
:100B7000F894DEBF0FBECDBF6D960FB6F894DEBF02
:100B80000FBECDBFDF91CF911F910F9108958EE0E1
:100B900092E00E94470F86E192E00E94580F82E1A6
:100BA00092E00E94690F8AE192E00E947A0F82E04F
:100BB00080931E0288E092E00E944C212ADF0E946E
:100BC0008B0F9F938F937F936F9387E793E09F9310
:100BD0008F930E948D3F84E793E09F938F930E94B1
:100BE0008D3F8DB79EB708960FB6F8949EBF0FBE87
:100BF0008DBF0895262F30E0AC0160E673E08FEDE5
:100C00009DE1C7CD08950F931F93CF938C01DC0115
:100C100019966C91662381F0C0E0D8011796ED918A
:100C2000FC911897EC0FF11D80810E945C22CF5F30
:100C3000F8016185C61788F370E0D80117968D9189
:100C40009C911897D7DF81E0CF911F910F91089564
:100C5000CF93DF93CDB7DEB7C55BD1090FB6F8945C
:100C6000DEBF0FBECDBF0E947A3D60E076E980E036
:100C700090E00E9407228FE192E090938524809378
:100C8000842499E288E10FB6F894A89580936000D7
:100C90000FBE90936000A895B0DE50DE80E060DE6D
:100CA0003C9A44983D98459A78940E946A238AE138
:100CB00094E09F938F9387E592E09F938F930E9498
:100CC0008D3F85E794E09F938F938CE694E09F930C
:100CD0008F9382E492E09F938F930E948D3F1F92A7
:100CE0008AE78F9382E18F931F928EE094E09F9327
:100CF0008F9383E292E09F938F930E948D3FD5DD87
:100D00009F938F9388E092E09F938F930E948D3FF3
:100D10003CDE0FB6F894DEBF0FBECDBF80911E0241
:100D2000823089F46EE170E287E00E94C60E44E9E9
:100D300053E067EC75E0CB015DD4C355DF4F1882FB
:100D4000CD5AD04007C065DE31E0C355DF4F388350
:100D5000CD5AD04082E090E0A0E0B0E0A9968CAF00
:100D60009DAFAEAFBFAFA997DEDDC255DF4F688341
:100D700079838A839B83CE5AD040D5DD2B013C01F9
:100D8000D2DDCE54DF4F688379838A839B83C25B35
:100D9000D040C9DD10E00F2EF4E08F2EF2E09F2E40
:100DA000F02D1E014AEA240E311C0E94813D0E9452
:100DB0001C238091BA0481112AC080E090E00E9437
:100DC0007E3480E890E00E9485348FE00E94A93C48
:100DD00081E00E94A53C63E076E083E00E948C34D1
:100DE00084E190E0A0E0B0E08093B3049093B40479
:100DF000A093B504B093B6041092B704ADE2B3E08B
:100E0000B093B904A093B80481E08093BA04A89584
:100E10008ADDDC01CB0184199509A609B709893E51
:100E20009340A105B10528F07EDD2B013C010E9415
:100E3000330F80911E02823031F50E944B118823BE
:100E400021F0843009F45DC11EC08091BF038F5F23
:100E50008093BF038430B8F081E080931E0223D7D3
:100E60008091BF031F928F932EE633E03F932F9321
:100E70000E947A3F8ADDCDDD1092BF030F900F9064
:100E80000F900F903EC1C355DF4F5881CD5AD040CF
:100E9000552361F048E853E164E472E280E038D120
:100EA00048EB5BE064E472E281E06FD23CDDDC01A0
:100EB000CB01C255DF4F288139814A815B81CE5AEF
:100EC000D040821B930BA40BB50B893E9340A10528
:100ED000B10580F028DDC255DF4F688379838A83AE
:100EE0009B83CE5AD0400E941720813011F4449A3F
:100EF00001C044981111C7C0D40113968C91139767
:100F00001F928F9312968C9112971F928F93119626
:100F10008C9111971F928F938C911F928F93E6ED76
:100F2000F1E0FF93EF930E948D3FCE018B599F4FCD
:100F30000E94D72B4BE557E0B401CE018B599F4F50
:100F40000E94E52BA12C6894BB24B1F80F2EFCE184
:100F5000CF2EFEE1DF2EF02D0F2EF4E6EF2EF12C3A
:100F6000F02D8E010F5F1F4F28EE33E040E050E080
:100F7000BE016B597F4F8FED9DE10E94FC238BE3F7
:100F8000E7EAF2E0DE01A159BF4F01900D928A9588
:100F9000E1F7CF57DF4F1882C158D04084E0E69682
:100FA0008FAFE69742E853E0E8965FAF4EAFE89721
:100FB00083E993E0C656DF4F99838883CA59D040AE
:100FC00085EA92E0CE55DF4F99838883C25AD0409C
:100FD0008CE390E0C258DF4F99838883CE57D0408E
:100FE00081E0C058DF4F8883C058D040BE016159AE
:100FF0007F4F8FED9DE10E94F6270FB6F894DEBF7C
:101000000FBECDBF611571058105910559F51F9280
:101010001F921F921F9286EB91E09F938F930E94E5
:101020008D3F8FE293E2F1019183808312822FE260
:1010300033E040E0B1018FED9DE10E94AE289F9327
:101040008F937F936F933F922F9281EA91E09F93CA
:101050008F930E948D3F0FB6F894DEBF0FBECDBFB9
:1010600011E011C09F938F937F936F9383E891E07A
:101070009F938F930E948D3F0F900F900F900F9032
:101080000F900F90FFCF4FDCDC01CB01CE54DF4F30
:10109000288139814A815B81C25BD040821B930BDE
:1010A000A40BB50B81369A4EA105B10508F47DCE8F
:1010B0003ADCCE54DF4F688379838A839B83C25B9B
:1010C000D040F3DB9F938F9388E691E09F938F93BB
:1010D0000E948D3F28DC28EE33E040E050E00E9483
:1010E000BC3E5F934F933F932F9384E591E09F9392
:1010F0008F930E948D3F0FB6F894DEBF0FBECDBF19
:1011000054CE51E0C355DF4F5883CD5AD040C2CEA4
:101110007F928F929F92AF92BF92CF92DF92EF9287
:10112000FF920F931F93CF93DF9300D01F92CDB701
:10113000DEB7782E5B01E42EF52E082F10E0000FAD
:10114000111F000F111F0F5F1F4F000F111F000F06
:10115000111F000F111FB8017D5F072E000C880BB7
:10116000990B0E949F1A833109F4B6C020F488239A
:1011700009F4CBC0E4C0873121F08C3109F48EC072
:10118000DEC068014EEFD41A0D2C000CEE08FF08EB
:10119000C701B6010E949F1A80FF46C0B801745F64
:1011A000072E000C880B990B24E030E0AE014F5F56
:1011B0005F4F0E94781BB801705F072E000C880BF0
:1011C000990B0E949F1A982EB8017F5E072E000C83
:1011D000880B990B0E949F1A292D30E0322F22276D
:1011E000A901480F511DCA019F934F938C811F92F3
:1011F0008F938B811F928F938A811F928F93898106
:101200001F928F931F927F9287E195E09F938F9318
:101210000E948D3F41E0C701B6010E94061B0FB638
:10122000F894DEBF0FBECDBF872D0E94E21C009751
:1012300009F48AC0AC01413092E0590710F040E057
:1012400052E0B501872D0E94901616161706180653
:1012500019060CF088C08B01672B09F47AC0812C29
:10126000912CA80148195909B501680D791D872DE0
:101270000E9485156B017C01992334F4872D0E940F
:101280004F12C701B6016FC0860E971E08151905CB
:1012900041F761E070E080E090E065C0872D0E943A
:1012A0000315C82E880FDD08EE08FF0841E0C416BC
:1012B000D104E104F10409F051C01F927F9284E04F
:1012C00095E09F938F930E948D3F0F900F900F900A
:1012D0000F90C701B60147C0FF92EF921F927F9215
:1012E00088ED94E09F938F930E948D3F872D0E94FD
:1012F000CA130F900F900F900F900F900F90682FC0
:10130000880F770B880B990B2EC020E04E2D5F2D98
:1013100061E0872D0E94C712082E000C990BAA0BC2
:10132000BB0B072D10E020E030E080179107A207EB
:10133000B307B9F461E070E080E090E014C061E0D0
:1013400070E080E090E00FC061E070E080E090E04D
:101350000AC061E070E080E090E005C0C701B6011E
:1013600002C0BC01CD010F900F900F900F90DF9144
:10137000CF911F910F91FF90EF90DF90CF90BF9092
:10138000AF909F908F907F9008954F925F926F9251
:101390007F929F92AF92BF92CF92DF92EF92FF9295
:1013A0000F931F93CF93DF9300D000D0CDB7DEB75C
:1013B000982E5B01142F052F80E2989EB001112416
:1013C000685F7C4F072E000C880B990B0E949F1AB8
:1013D000882309F46EC0823209F095C0892D0E94DD
:1013E000E21C009709F494C0AC01413092E0590727
:1013F00010F040E052E08E010B5F1F4F9E012F5F07
:101400003F4FB501892D0E94B1186B017C01161662
:10141000170618061906B4F0FF92EF92DF926F9349
:101420001F929F928EEB94E09F938F930E948D3F2B
:101430000FB6F894DEBF0FBECDBF3C2D2D2D8E2DE7
:101440009F2D74C0672B09F468C0E12CF12C0D812D
:101450001E819E012F5F3F4FA6014E195F09B50106
:101460006E0D7F1D892D0E9488172B013C01992349
:10147000B4F47F926F925F926F931F929F9286EA6D
:1014800094E09F938F930E948D3F0FB6F894DEBF38
:101490000FBECDBF342D252D862D972D47C0E60ECE
:1014A000F71ECE14DF0499F631E020E080E090E0F2
:1014B0003DC020E0412F502F62E0892D0E94C712CD
:1014C000482F880F550B660B770B892D90E0A0E015
:1014D000B0E0481759076A077B0721F50F931F9360
:1014E0001F929F9281E894E09F938F930E948D3F7B
:1014F0000F900F900F900F900F900F9031E020E021
:1015000080E090E013C031E020E080E090E00EC089
:1015100031E020E080E090E009C031E020E080E0B0
:1015200090E004C0342F252F862F972F632F722F22
:1015300026960FB6F894DEBF0FBECDBFDF91CF91D8
:101540001F910F91FF90EF90DF90CF90BF90AF90E1
:101550009F907F906F905F904F90089524E030E0CF
:101560004DEC54E060E07FE080E090E00E94001CE1
:1015700024E030E045EC54E060E075E080E090E08D
:101580000E94001C24E030E049EC54E060E071E08F
:1015900080E090E00C94001C089540E860E070E06A
:1015A000CB010E94061B60E070E0CB010E949F1AF5
:1015B000D5DF26E030E044E454E260E079E080E00A
:1015C00090E00C94001C089540E860E070E0CB01CE
:1015D0000E94061B60E070E0CB010E949F1A26E08B
:1015E00030E044E454E260E079E080E090E00C9484
:1015F000001C08952EEA3AE0309332022093310223
:101600002DEC3AE03093300220932F0224EE3AE0A2
:1016100030932E0220932D02009721F090933202F6
:10162000809331026115710521F07093300260934F
:101630002F024115510521F050932E0240932D02A7
:101640000895CF93DF9300D000D0CDB7DEB726E06A
:1016500030E0AE014F5F5F4F60E079E080E090E006
:101660000E94781BE0915224F091532481E0808302
:10167000E0915224F09153248183809152249091DF
:10168000532426E0DC0112962C93129713961C9299
:10169000139720914A2430914B2440914C2450912F
:1016A0004D2414965C93149715964C9315971696A3
:1016B0003C93169717962C93179719961C921E9287
:1016C000189720E81A962C931A971B961C921B9732
:1016D0001C961C921C971D961C921D971E961C9280
:1016E0001E971F961C921F9750961C9250975196CA
:1016F0001C92519752961C92529753961C92539754
:1017000054961C92549755961C92559756961C9237
:10171000569757961C92579758961C9258975996D9
:101720001C9259975A961C925A975B961C925B97FB
:10173000E4E4F4E220815C962C935C9721815D9631
:101740002C935D9722815E962C935E9723815F9602
:101750002C935F97248190962C9390972581919656
:101760002C9391979296FC01BC961D92EA17FB0769
:10177000E1F7DC01A459BF4F1192AE17BF07E1F7A3
:101780009C0124513F4F1D922A173B07E1F7FC01B2
:10179000E451FF4F23E62083319632E830833196BF
:1017A00033E530833196208326960FB6F894DEBF5A
:1017B0000FBECDBFDF91CF910895AF92BF92DF9260
:1017C000EF92FF920F931F93CF93DF9300D01F925E
:1017D000CDB7DEB736DF6091522470915324FB0100
:1017E000E051FF4F85E38083319681E0808331961D
:1017F000808331969DE39083319697E09083319674
:101800008083DB01AA50BF4FE4E4F4E280818C9333
:10181000119681818C93119682818C93D38011963D
:10182000DC92E4801196EC92F580FB01E550FF4FCD
:10183000F08231968CE08083319610828091330261
:101840008823B1F0AB0142505F4FA4E3B2E022E144
:1018500030E059019FEFA91AB90AFA018193AF014B
:101860008901015111098D9195018111F2CF07C0B4
:101870000F2EF2E1AF2EB12CF02D00E010E0CB01E5
:101880008A0D9B1DDC01A451BF4FDC921196EC9296
:101890001196FC9295012D5F3F4FD901A01BB10B12
:1018A000A60FB71FA851BF4F0D5F0C93260F371F10
:1018B000D901A451BF4F27E32C93DC01A051BF4FA6
:1018C00026E02C93119631E03C93119633E03C9343
:1018D00011962C9311962FE02C9311962AE32C93BA
:1018E00011962BE32C9311962FEF2C93C5010C9698
:1018F0008833914060F4F501E850FF4FE60FF71F81
:10190000CB018C5D9D4F1192E817F907E1F78FEF3E
:1019100089838A838B838C8303E410E09E012F5F8D
:101920003F4F44E252E0809154240E9488170F9068
:101930000F900F900F90DF91CF911F910F91FF901B
:10194000EF90DF90BF90AF9008950F931F93CF93C8
:10195000DF9300D01F92CDB7DEB773DE60915224C3
:1019600070915324FB0112861386E051FF4F85E3EB
:101970008083319691E09083319684E08083319624
:101980002DE32083319627E0208331969083DB017D
:10199000AA50BF4FE4E4F4E290819C9311969181A8
:1019A0009C93119692819C93119693819C9311968E
:1019B00094819C93119695819C93FB01E450FF4F79
:1019C00092E39083319680831396EDECF4E090815E
:1019D0009C93119691819C93119692819C93119660
:1019E00093819C93FB01EE5FFE4F96E390833196CB
:1019F00080831396EEE4F4E280818C9311968181CA
:101A00008C93119682818C93119683818C93FB0128
:101A1000E85FFE4F8FEF80833196CB018C5D9D4F49
:101A20001192E817F907E1F78FEF89838A838B8397
:101A30008C8303E410E09E012F5F3F4F44E252E0AD
:101A4000809154240E9488170F900F900F900F9050
:101A5000DF91CF911F910F910895AF92BF92CF92D6
:101A6000DF92EF92FF920F931F93CF93DF93CDB747
:101A7000DEB728970FB6F894DEBF0FBECDBF8091BA
:101A800054240E94E21C009709F4EFC06091522494
:101A9000709153248E01095F1F4F9E012F5F3F4FAE
:101AA000AC01809154240E94B1182F8138852334D1
:101AB000310509F0D8C0E0915224F0915324348DBF
:101AC000209144243213D3C0358D20914524321304
:101AD000D0C0368D209146243213CDC0378D209151
:101AE00047243213CAC030A1209148243213C7C002
:101AF00031A1209149243213C4C0E051FF4FAB0102
:101B0000405F51094E0F5F1F80E001EC14E06EE46E
:101B100074E225EC34E00F2EF9ECAF2EF4E0BF2E8A
:101B2000F02D9CC090819630E9F130F49130B9F0FD
:101B300088F0933021F18AC0953371F020F493330B
:101B400009F443C083C0963309F470C09F3F09F481
:101B500099C07CC0319682C0828133967FC09281C9
:101B6000D9019C93938111969C931197948112961D
:101B70009C931297958113969C9336966FC0918192
:101B8000F280D501FC92F3801196FC921197F480BB
:101B90001296FC921297F5801396FC92E90FF11DB4
:101BA00032965CC09181F280D801FC92F38011964C
:101BB000FC921197F4801296FC921297F58013967E
:101BC000FC92E90FF11D329649C0C280D12CE12C64
:101BD000F12CC0923F02D0924002E0924102F0927A
:101BE0004202FE2CED2CDC2CCC249381C90ED11C9E
:101BF000E11CF11CFE2CED2CDC2CCC249481C90EB4
:101C0000D11CE11CF11CFE2CED2CDC2CCC2495818C
:101C1000C90ED11CE11CF11CC0923F02D0924002BF
:101C2000E0924102F0924202369618C09281DB01A6
:101C30009C93938111969C931197948112969C93F7
:101C40001297958113969C93369608C07F01B2E057
:101C5000EB0EF11C9181F701E90FF11DE417F50777
:101C600008F460CF0FC080E00DC080E00BC080E0C2
:101C700009C080E007C080E005C080E003C080E0CC
:101C800001C080E028960FB6F894DEBF0FBECDBF2E
:101C9000DF91CF911F910F91FF90EF90DF90CF9048
:101CA000BF90AF90089580915424F9D386E080933B
:101CB000C0040895CF92DF92EF92FF920F931F938B
:101CC000CF9360E07BE180E090E00E949F1AC82FF4
:101CD00043E060E07BE180E090E00E94061B08E8C2
:101CE00013E12DEC34E041E150E06CE973E08091C8
:101CF00054240E9488176B017C014C2F60E07BE12B
:101D000080E090E00E94061B83EFC8168FEFD80694
:101D1000E806F806D9F019DE4091BB045091BC04E6
:101D20006091BD047091BE048091BB049091BC048D
:101D3000A091BD04B091BE04841B950BA60BB70BFC
:101D40000297A105B10580F380E001C081E0CF9149
:101D50001F910F91FF90EF90DF90CF900895109218
:101D6000BB041092BC041092BD041092BE048AE021
:101D700090E0A0E0B0E080933B0290933C02A093FF
:101D80003D02B0933E021092BF040895FF920F935C
:101D90001F93CF93DF9300D01F92CDB7DEB7F82EFD
:101DA0008B0119821A821B821C8226E030E044E4F7
:101DB00054E260E079E080E090E00E94781BE4E487
:101DC000F4E290818181892B9281892B9381892BE7
:101DD0009481892B9581892B89F4108288E08183F5
:101DE0008CED828313821482158226E030E0AF01ED
:101DF00060E079E080E090E00E94001CF0925424C2
:101E0000109353240093522488E796E5A4E3B2E1AB
:101E100080934A2490934B24A0934C24B0934D2458
:101E200024E030E0AE014F5F5F4F60E07FE080E094
:101E300090E00E94001C24E030E0AE014F5F5F4F55
:101E400060E071E080E090E00E94001C88DF10926A
:101E5000C0040F900F900F900F90DF91CF911F91C2
:101E60000F91FF9008958091BB049091BC04A091C4
:101E7000BD04B091BE040196A11DB11D8093BB04A9
:101E80009093BC04A093BD04B093BE040895FC01DC
:101E9000ADECB4E08C91808311968C911197818385
:101EA00012968C911297828313968C918383089556
:101EB000FC01A9ECB4E08C91808311968C91119770
:101EC000818312968C911297828313968C918383CF
:101ED0000895FC01A5ECB4E08C91808311968C915F
:101EE0001197818312968C911297828313968C910D
:101EF00083830895FC01A1ECB4E08C91808311965A
:101F00008C911197818312968C91129782831396EC
:101F10008C918383089560913F027091400280917B
:101F200041029091420208958F708A3010F4805DD2
:101F30000895895C08957F928F929F92AF92BF928D
:101F4000CF92DF92EF92FF920F931F93CF93DF9385
:101F500000D01F92CDB7DEB774DB8091C0048350F0
:101F6000823000F5E0915224F091532412861386BA
:101F7000ADECB4E08C91848711968C911197858794
:101F800012968C911297868713968C918787EEE430
:101F9000F4E28081898381818A8382818B8383813A
:101FA0008C8305C08FEF89838A838B838C83E09039
:101FB0005224F0905324F701E051FF4F85E38083D2
:101FC000319681E08083319693E0908331969DE352
:101FD0009083319697E0908331968083D701AA5001
:101FE000BF4FE4E4F4E280818C93119681818C935D
:101FF000119682818C93738011967C9284801196C5
:102000008C929580F701E550FF4F90828C818F3F35
:1020100071F582E33196808384E031968083EDEC24
:10202000F4E0908114969C93918111969C939281F7
:1020300011969C939381F701EF5FFE4F908396E397
:102040003196908331968083EEE4F4E28081149699
:102050008C93818111968C93828111968C938381CC
:10206000F701E95FFE4F8083ECE1F0E002C0E0E1C0
:10207000F0E0C7018E0F9F1FDC01A451BF4F2CE081
:102080002C938F010E5F1F4F11961C92809133028B
:10209000882391F0E251FF4FEE0DFF1DA4E3B2E063
:1020A000A12CB12C0F5F1F4F81932FEFA21AB20A00
:1020B0008D918111F7CF02C0A12CB12C872D829573
:1020C0008F7032DF6701C00ED11EF601E451FF4F61
:1020D0008083872D29DFF601E351FF4F8083882D10
:1020E00082958F7021DFF601E251FF4F8083882DAA
:1020F0001BDFF601E151FF4F8083892D82958F70A0
:1021000013DFF601E051FF4F8083892D0DDFF601CB
:10211000EF50FF4F8083F8013197EA19FB09EE0D6C
:10212000FF1DE451FF4F86E08A0D8083F601EE50DB
:10213000FF4F87E38083319688E08083319681E08A
:102140008083319683E08083319686E08083319668
:102150008FE0808331968AE3808331968BE380839E
:1021600031968FE18083319681E2808331968FEFC3
:102170008083C80141968833914064F4F801E350AC
:10218000FF4FEE0DFF1DC7018C5D9D4F1192E817AB
:10219000F907E1F703E410E09E012F5F3F4F44E2AF
:1021A00052E0B70180915424B3D60F900F900F9056
:1021B0000F90DF91CF911F910F91FF90EF90DF90E3
:1021C000CF90BF90AF909F908F907F900895CF93C6
:1021D0008091BF0482300CF045C08091BB04909187
:1021E000BC04A091BD04B091BE0440913B0250914B
:1021F0003C0260913D0270913E02481759076A0700
:102200007B0708F044C08091C004823031F08430F4
:1022100031F0813029F4D1DA03C08DDE01C08BDECC
:102220001092BB041092BC041092BD041092BE0424
:102230008091BB049091BC04A091BD04B091BE04F8
:102240000A96A11DB11D80933B0290933C02A0937E
:102250003D02B0933E028091BF048F5F8093BF0424
:10226000C1E016C08091C004823041F0843031F06A
:10227000813051F41092C004C0E007C09EDA81E0C2
:102280008093C004C1E001C0C1E069DD01C0C1E0CC
:102290008C2FCF910895CF938091C004863009F49C
:1022A000F5C06091542420E2629FB0011124685F60
:1022B0007C4F072E000C880B990B0E949F1A8232CC
:1022C00039F020E044E450E062E0809154245FD192
:1022D000C4DB9091C0049230B9F12CF4992351F0F1
:1022E000913099F0D5C0933009F451C0943009F47D
:1022F00099C0CEC0EDECF4E01082118212821382FC
:102300005CDA81E08093C004C8C08230D9F4A09127
:102310005224B0915324EDECF4E050968C915097F8
:10232000808351968C915197818352968C915297CC
:10233000828353968C918383FEDD82E08093C00478
:1023400081E0ABC044DFA9C08530C1F4B3DC882391
:1023500059F0E0913102F0913202199500DD83E0ED
:102360008093C00481E099C0FADCE0912D02F091E5
:102370002E0219951092C00481E08FC0863029F496
:10238000EEDC81E08093C00488C021DF86C08091AC
:102390003F0290914002A0914102B09142028F3FD2
:1023A0002FEF9207A207B20709F474C04091BB0453
:1023B0005091BC046091BD047091BE04B695A79580
:1023C0009795879584179507A607B70708F064C007
:1023D000E1EDF4E0ADECB4E08C91808311968C914A
:1023E0001197818312968C911297828313968C9108
:1023F000838380914A2490914B24A0914C24B091E6
:102400004D240196A11DB11D80934A2490934B2425
:10241000A0934C24B0934D248EDDA1DC84E0809306
:10242000C0043BC0853041F51092BF049091D104A7
:102430008091CD04981312C09091D2048091CE0463
:1024400098130CC09091D3048091CF04981306C0C8
:102450009091D4048091D004981739F0E0912F0224
:10246000F09130021995C3E001C0C4E078DC83E04C
:102470008093C0048C2F11C0863031F470DC81E071
:102480008093C00484E009C0A2DE07C085E005C0D7
:1024900081E003C084E001C084E0CF9108958F9271
:1024A0009F92AF92BF92CF92DF92EF92FF92CF9323
:1024B000DF93893008F05FC0F82EC82FD0E06E019E
:1024C000CC0CDD1CCC0CDD1C8FEFC81AD80ACC0C50
:1024D000DD1CCC0CDD1CCC0CDD1C46019394092CBE
:1024E000000CAA08BB0840E1C501B4010E94061B0C
:1024F000C501B4010E949F1A8111FACFB6017E5F17
:10250000072E000C880B990B4FE10E94061B81E0FF
:1025100090E002C0880F991FFA94E2F78095909599
:102520002091EF043091F004282339233093F004F4
:102530002093EF042091ED043091EE048223932345
:102540009093EE048093ED04FE01EE0FFF1FE35223
:10255000FB4F11821082CB52DB4F18828DEFD81ABD
:102560000D2C000CEE08FF08C701B601E8D7811159
:10257000FBCF81E001C08FEFDF91CF91FF90EF9013
:10258000DF90CF90BF90AF909F908F9008954F9223
:102590005F926F927F92AF92BF92CF92DF92EF9253
:1025A000FF920F931F93CF93DF9300D01F92CDB76D
:1025B000DEB7182F562E3A01022F893008F0CCC012
:1025C00021E0621739F0621708F4C8C084E086176A
:1025D000B0F4C4C024E030E0AE014F5F5F4F60E074
:1025E0007FE080E090E00E94781B89819A81AB8136
:1025F000BC81892B8A2B8B2B11F48DEFB8C002FD87
:10260000AFC00023A9F021E0521621F082E0581655
:1026100029F00EC0802F817259F4A4C005FF03C0B9
:10262000002334F0A1C004FF03C000230CF09EC0BF
:10263000812F35DFA12EB12C6501CC0CDD1CCC0C1B
:10264000DD1C2FEFC21AD20ACC0CDD1CCC0CDD1C19
:10265000CC0CDD1C402F407F4529B6010D2C000C11
:10266000880B990BD3D761147104A9F460904302CD
:1026700070904402C3010196803F2FEF920729F02A
:10268000909344028093430206C080E090EC9093C4
:10269000440280934302B6017C5F072E000C880B36
:1026A000990B472DB3D7B6017B5F072E000C880B23
:1026B000990B462DABD726015394052C000C6608C8
:1026C000770841E0C301B201A1D7C301B20137D7F6
:1026D0008111FBCF81E090E0012E02C0880F991F8D
:1026E0000A94E2F7809590952091EF043091F004E0
:1026F0002823392300FBEE24E0F8F12C012E02C040
:10270000EE0CFF1C0A94E2F7E22AF32AF092F0049E
:10271000E092EF042091ED043091EE0482239323A4
:102720009093EE048093ED04F501EE0FFF1FE3524A
:10273000FB4F11821082F501EB52FB4F10822DEFFF
:10274000D21A0D2C000CEE08FF08C701B601F7D60F
:102750008823D9F3812F0BC08FEF09C08BEF07C0FF
:102760008AEF05C08AEF03C08AEF01C08AEF0F909D
:102770000F900F900F90DF91CF911F910F91FF90CD
:10278000EF90DF90CF90BF90AF907F906F905F9071
:102790004F9008958F929F92AF92BF92CF92DF9207
:1027A000EF92FF92CF93893008F03FC0C82FC82E18
:1027B000D12CCC0CDD1CCC0CDD1C8FEFC81AD80A38
:1027C000CC0CDD1CCC0CDD1CCC0CDD1CB6010D2CA6
:1027D000000C880B990BB3D68F70813041F5460100
:1027E0008DEF981A092C000CAA08BB08C501B4018A
:1027F000A6D68331F1F4D3940D2C000CEE08FF081B
:1028000042E0C701B60102D7C701B60198D68111CF
:10281000FBCF04C08C2F43DE8CEF0CC0C501B4018C
:102820008ED68431B9F781E005C08FEF03C08BEFFE
:1028300001C08DEFCF91FF90EF90DF90CF90BF90D0
:10284000AF909F908F9008954F925F926F927F927A
:102850008F929F92AF92BF92CF92DF92EF92FF92B0
:102860001F93CF93DF93893008F0B0C07A01EB015A
:10287000182FC82ED12CCC0CDD1CCC0CDD1C8FEFFE
:10288000C81AD80ACC0CDD1CCC0CDD1CCC0CDD1C11
:10289000B6010D2C000C880B990B51D68F7081302E
:1028A00009F096C046018DEF981A092C000CAA0871
:1028B000BB08C501B40143D6833109F08BC0488100
:1028C00050E060E070E0762F652F542F4427898117
:1028D000480F511D611D711D762F652F542F442700
:1028E0008A81480F511D611D711D762F652F542F50
:1028F00044278B8190E0A0E0B0E00197A109B109E5
:10290000480F591F6A1F7B1F4E3F5F4F6F4F7F4F0E
:1029100008F062C0E114F10409F460C0B601745F0C
:10292000072E000C880B990B24E030E0AE0168D72D
:10293000B601705F072E000C880B990B4F2D66D6E1
:10294000B6017F5E072E000C880B990B4E2D5ED6CC
:1029500026015394052C000C6608770844E0C30157
:10296000B20154D6C301B201EAD58111FBCF81E097
:1029700090E002C0880F991F1A95E2F72091EF04AA
:102980003091F00482239323892B51F58EEFD81ACE
:102990000D2C000CEE08FF0812C0C701B601CFD500
:1029A00083FF08C048E06C2D7D2D8E2D9F2D2ED6E7
:1029B00083EF19C0C501B401C2D5882399F0C501C0
:1029C000B401BDD5873149F781E00DC08FEF0BC051
:1029D0008BEF09C08DEF07C084EF05C085EF03C002
:1029E00080E001C08CEFDF91CF911F91FF90EF90BD
:1029F000DF90CF90BF90AF909F908F907F906F901F
:102A00005F904F9008958F929F92AF92BF92CF9216
:102A1000DF92EF92FF921F93CF93DF93893008F0FC
:102A200063C0182FC82FD0E0CC0FDD1FCC0FDD1FE7
:102A30002196CC0FDD1FCC0FDD1FCC0FDD1FBE019B
:102A40000D2E000C880B990B7AD58F70813009F010
:102A50004DC06E01D3940D2C000CEE08FF0848E029
:102A6000C701B601D3D5C701B60169D58111FBCF26
:102A700081E090E0012E02C0880F991F0A94E2F7CE
:102A80009C01209530954091ED045091EE04242353
:102A900035233093EE042093ED042091EF04309120
:102AA000F00482239323892B19F54E018DEF981A98
:102AB000092C000CAA08BB086E018EEFD81A0D2C49
:102AC000000CEE08FF0809C0C701B60138D583FF26
:102AD00004C0812FE4DC83EF0CC0C501B4012FD505
:102AE0008111F2CF81E005C08FEF03C08BEF01C0F1
:102AF00080E0DF91CF911F91FF90EF90DF90CF901A
:102B0000BF90AF909F908F9008952F923F924F92D9
:102B10005F926F927F928F929F92AF92BF92CF926D
:102B2000DF92EF92FF921F93CF93DF9300D01F921B
:102B3000CDB7DEB7893008F0C3C06A011B01182F7A
:102B4000E82EF12CEE0CFF1CEE0CFF1C2FEFE21A0E
:102B5000F20AEE0CFF1CEE0CFF1CEE0CFF1CB70182
:102B60000F2C000C880B990BEAD48F70813009F080
:102B7000ABC0C114D10409F4ACC027013DEF531A16
:102B8000052C000C66087708C301B201D8D4873140
:102B900019F08C3109F0A2C081E090E04C01012EC7
:102BA00002C0880C991C0A94E2F754018091ED044C
:102BB0009091EE0488219921892B61F1C7019E5FD4
:102BC0009C01990F440B550B29833A834B835C83FB
:102BD000CA01B901B4D484FF14C040E169817A818B
:102BE0008B819C8113D52091ED043091EE04C401BA
:102BF00080959095822393239093EE048093ED0427
:102C000009C083FF70C0812F4ADC63EF7FEF8FEF35
:102C10009FEF70C0B701715E072E000C880B990BF7
:102C20008ED490E0982F8827990F990F8C159D05C9
:102C300008F46C01812F72D69A838983C301B20193
:102C40007ED4873149F08C3139F0812F28DC69EF4F
:102C50007FEF8FEF9FEF4EC08091EF049091F004D3
:102C60008A219B21892B31F049815A814C155D05C0
:102C700030F43DC089819A818C159D05D8F2A6015A
:102C8000B101812FF3D627015394052C000C66085F
:102C9000770840E2C301B201B9D4C301B2014FD4F5
:102CA0008111FBCF8091ED049091EE04882A992A3E
:102CB0009092EE048092ED04B60180E090E01AC09C
:102CC0006FEF7FEFCB0116C06BEF7FEF8FEF9FEFC2
:102CD00011C062EF7FEF8FEF9FEF0CC069EF7FEFC6
:102CE0008FEF9FEF07C060E070E0CB0103C060E0B2
:102CF00070E0CB010F900F900F900F90DF91CF916C
:102D00001F91FF90EF90DF90CF90BF90AF909F907A
:102D10008F907F906F905F904F903F902F9008958D
:102D20002F923F924F925F926F927F928F929F92DB
:102D3000AF92BF92CF92DF92EF92FF920F931F93C9
:102D4000CF93DF9300D01F92CDB7DEB7893008F064
:102D5000A8C06A017A836983382E082F10E0000F1B
:102D6000111F000F111F0F5F1F4F000F111F000FCA
:102D7000111F000F111FB801012E000C880B990BB9
:102D8000DED38F70813009F090C0C114D10409F4F2
:102D900091C0B801725E072E000C880B990BCFD33F
:102DA000282E81E090E07C01032C02C0EE0CFF1C79
:102DB0000A94E2F748012DEF921A092C000CAA0898
:102DC000BB08280131EE531A052C000C6608770861
:102DD000832DF8D59C838B83C501B401B0D3873193
:102DE00031F18C31E9F48B819C81892B91F5832D14
:102DF00095D59C838B83C301B201A1D390E0982F1A
:102E00008827990F990F2B813C812817390709F0E2
:102E10005EC0832D44DB69EF7FEF8FEF9FEF61C0D2
:102E2000832D3DDB69EF7FEF8FEF9FEF5AC08091DD
:102E3000EF049091F0048E219F21892B29F08B8142
:102E40009C81892B31F43BC02B813C81232B09F4DD
:102E5000BFCF822D90E0982F8827990F990F8C155E
:102E60009D0508F46C018B819C818C159D0508F4EF
:102E70006C01A60169817A81832D7FD648019394E4
:102E8000092C000CAA08BB0840E4C501B401BED35C
:102E9000C501B40154D38111FBCFB60180E090E0AD
:102EA00020C06FEF7FEFCB011CC06BEF7FEF8FEF88
:102EB0009FEF17C062EF7FEF8FEF9FEF12C060E0D0
:102EC00070E0CB010EC060E070E0CB010AC08091E1
:102ED000EF049091F0048E219F21892B09F478CF83
:102EE000F2CF0F900F900F900F90DF91CF911F9125
:102EF0000F91FF90EF90DF90CF90BF90AF909F9099
:102F00008F907F906F905F904F903F902F9008959B
:102F10004F925F927F928F929F92AF92BF92CF9289
:102F2000DF92EF92FF920F931F93CF93DF9389303D
:102F300008F0E2C069017A012B01782EC82FD0E099
:102F4000CC0FDD1FCC0FDD1F2196CC0FDD1FCC0F6A
:102F5000DD1FCC0FDD1F4E010D2E000CAA08BB0893
:102F6000C501B401ECD28F708250833008F0C8C024
:102F7000E114F10409F4C9C0F601808190E0A0E0F9
:102F8000B0E0BA2FA92F982F88272181820F911D99
:102F9000A11DB11DBA2FA92F982F88272281820F3A
:102FA000911DA11DB11DBA2FA92F982F882723810C
:102FB000820F911DA11DB11D892B8A2B8B2B29F40A
:102FC000C501B401BCD282FFA5C00115110529F4C9
:102FD000C501B401B4D282FFA2C04E01FDEF9F1A19
:102FE000092C000CAA08BB08C501B401A8D2823480
:102FF00021F08F7E823209F097C0BE01745F072EE8
:10300000000C880B990B24E030E0A601F9D3BE0137
:10301000705F072E000C880B990B412FF7D2BE0171
:103020007F5E072E000C880B990B402FEFD2BE015C
:10303000715E072E000C880B990B81D290E0982FBF
:103040008827990F990F8E159F0508F47C0181E060
:1030500090E06C01072C02C0CC0CDD1C0A94E2F756
:10306000872D5CD48C01C501B40169D2882309F491
:1030700060C08091EF049091F0048C219D21892BF8
:1030800021F00E151F0520F459C00E151F0540F341
:10309000A701B201872DEAD44E019394092C000CAC
:1030A000AA08BB0840E2C501B401B0D2C501B40111
:1030B00046D28111FBCFDE5F4E01DD0FAA08BB08AF
:1030C000C501B4013CD284FF0AC040E1682D792DCE
:1030D0008A2D9B2D9BD2B70180E090E032C083FF08
:1030E000EFCF48E0682D792D8A2D9B2D8FD263EF8D
:1030F0007FEF8FEF9FEF25C06FEF7FEFCB0121C0F8
:103100006BEF7FEF8FEF9FEF1CC062EF7FEF8FEFD2
:103110009FEF17C064EF7FEF8FEF9FEF12C065EF57
:103120007FEF8FEF9FEF0DC069EF7FEF8FEF9FEF86
:1031300008C06CEF7FEF8FEF9FEF03C060E070E09F
:10314000CB01DF91CF911F910F91FF90EF90DF9016
:10315000CF90BF90AF909F908F907F905F904F9057
:1031600008952F923F924F925F926F927F928F922B
:103170009F92AF92BF92CF92DF92EF92FF920F9306
:103180001F93CF93DF93CDB7DEB72E970FB6F8948A
:10319000DEBF0FBECDBF893008F095C11E870D87F9
:1031A0003A8729874A017C876B87382EA82EB12C55
:1031B0007501EE0CFF1CEE0CFF1C2FEFE21AF20A59
:1031C000EE0CFF1CEE0CFF1CEE0CFF1CB7010F2CCD
:1031D000000C880B990BB3D1282E8F70825083304E
:1031E00008F075C18114910409F476C1F501EE0F60
:1031F000FF1FE352FB4F80819181892B09F07AC137
:1032000081E090E06C01032C02C0CC0CDD1C0A9420
:10321000E2F727018DEF581A052C000C6608770895
:10322000832DD0D38C01C301B20189D1882309F445
:1032300058C18091EF049091F0048C219D21892B3D
:1032400021F00115110521F451C10115110541F3BA
:10325000822D8770833009F4B1C0843009F45DC0D9
:10326000823009F0FBC0F501EE0FFF1FE352FB4F68
:1032700080819181892B09F03EC048E050E0BE0179
:103280006F5F7F4F832D79D427015394052C000C59
:103290006608770840E4C301B201B8D1C301B201A6
:1032A0004ED18111FBCF8981E985FA8580838A819E
:1032B00081838B8182838C8183838D8190E0982FA1
:1032C00088272E81820F911DED85FE859183808355
:1032D000F501EE0FFF1FE352FB4F8F8190E0982F17
:1032E00088272885820F911D9183808380E8F501CE
:1032F000EB52FB4F8083F501EE0FFF1FE352FB4FB4
:103300008081918184018815990508F48C01A801B8
:103310006B857C85832D31D4ABC0F501EE0FFF1F8B
:10332000E352FB4F80819181892BB1F542E050E05F
:10333000BE016F5F7F4F832D20D427015394052C4E
:10334000000C6608770840E4C301B2015FD1C301F5
:10335000B201F5D08111FBCF898190E0382F22276F
:103360009A81892F90E00297820F931FF501EE0F4B
:10337000FF1FE352FB4F918380838B3E954038F0D3
:10338000832D8DD867E17CEF8FEF9FEFBFC080E882
:10339000F501EB52FB4F8083F501EE0FFF1FE35267
:1033A000FB4F8081918184018815990508F48C0177
:1033B000A8016B857C85832DE0D35AC0F501EE0F03
:1033C000FF1FE352FB4F80819181892B99F546E0E5
:1033D00050E0BE016F5F7F4F832DCFD32701539401
:1033E000052C000C6608770840E4C301B2010ED139
:1033F000C301B201A4D08111FBCF8981E985FA858F
:1034000080838A8181838B8182838C818383F50190
:10341000EE0FFF1FE352FB4F8D8190E0982F88271E
:103420002E81820F911D9183808380E8F501EB52FC
:10343000FB4F8083F501EE0FFF1FE352FB4F8081AE
:10344000918184018815990508F48C01A8016B8588
:103450007C85832D92D30CC000E010E0B801832D51
:1034600013D4F501EE0FFF1FE352FB4F11830083CE
:103470006701D3940D2C000CEE08FF0840E4C7014F
:10348000B601C4D0C701B6015AD08111FBCFF501F6
:10349000EE0FFF1FE352FB4F80819181801B910B48
:1034A00091838083892B39F0F501EB52FB4F8081AA
:1034B0008160808304C0F501EB52FB4F1082B8019C
:1034C00080E090E023C06FEF7FEFCB011FC06BEF78
:1034D0007FEF8FEF9FEF1AC062EF7FEF8FEF9FEFCD
:1034E00015C06CEF7FEF8FEF9FEF10C060E070E0D2
:1034F000CB010CC0822D8770833009F45FCF8430FC
:1035000009F40BCF823009F0A7CFF5CE2E960FB677
:10351000F894DEBF0FBECDBFDF91CF911F910F9109
:10352000FF90EF90DF90CF90BF90AF909F908F90E3
:103530007F906F905F904F903F902F900895DF9213
:10354000EF92FF920F931F93CF93DF9300D0CDB7ED
:10355000DEB7F62EE72ED82E05E412E0D801189635
:10356000ED91FC9119971995D8011C96ED91FC915C
:103570001D971995F80184899589892B31F0E0917F
:103580005B02F0915C023097C1F405E412E0D801CF
:103590005296ED91FC9153978D2D1995D801529625
:1035A000ED91FC9153978E2D1995D8015296ED917E
:1035B000FC9153978F2D199508C0D982EA82FB821E
:1035C00063E070E0CE010196199505E412E0D801A0
:1035D0005096ED91FC9151971995F82ED8011E96B1
:1035E000ED91FC911F971995D8011A96ED91FC91D8
:1035F0001B9719958F2D0F900F900F90DF91CF9102
:103600001F910F91FF90EF90DF9008954F925F927E
:103610006F927F92BF92CF92DF92EF92FF920F93C1
:103620001F93CF93DF9300D01F92CDB7DEB76B010E
:103630007C01B42E05E412E0D8011896ED91FC91BE
:1036400019971995D8011C96ED91FC911D97199524
:1036500026013701689442F8D8015696ED91FC9105
:1036600057973097E1F45296ED91FC9153978E2D38
:103670001995D8015296ED91FC9153978D2D19957E
:10368000D8015296ED91FC915397842D1995D8014C
:103690005296ED91FC9153978B2D199509C0E982B3
:1036A000DA824B82BC8264E070E0CE01019619950B
:1036B00005E412E0D8011E96ED91FC911F97199533
:1036C000D8011A96ED91FC911B9719950F900F90C8
:1036D0000F900F90DF91CF911F910F91FF90EF907E
:1036E000DF90CF90BF907F906F905F904F90089544
:1036F0009F92AF92BF92CF92DF92EF92FF920F9381
:103700001F93CF93DF9300D0CDB7DEB7B62EA72E91
:10371000982E7A01690105E412E0D8011896ED911E
:10372000FC9119971995D8011C96ED91FC911D9764
:103730001995F80184899589892B31F0E0915B0214
:10374000F0915C02309781F505E412E0D8015296C1
:10375000ED91FC915397892D1995D8015296ED91D1
:10376000FC9153978A2D1995D8015296ED91FC91B1
:1037700053978B2D1995C114D10429F18701CE0CD3
:10378000DF1C0F2EF5E4EF2EF2E0FF2EF02DD70117
:103790005096ED91FC9151971995F80181938F0105
:1037A000EC15FD05A1F70FC09982AA82BB8263E0E8
:1037B00070E0CE0101961995E0915902F0915A02FC
:1037C000B601C701199505E412E0D8011E96ED91E6
:1037D000FC911F971995D8011A96ED91FC911B97B2
:1037E00019950F900F900F90DF91CF911F910F912E
:1037F000FF90EF90DF90CF90BF90AF909F90089593
:103800004F925F926F927F928F929F92AF92BF92F0
:10381000CF92DF92EF92FF920F931F93CF93DF939C
:1038200000D0CDB7DEB76B017C014A01590105E438
:1038300012E0D8011896ED91FC9119971995D801CD
:103840001C96ED91FC911D971995260137016894FE
:1038500042F8D8015696ED91FC915797309769F54B
:103860005296ED91FC9153978E2D1995D801529651
:10387000ED91FC9153978D2D1995D8015296ED91AC
:10388000FC915397842D1995A114B10429F1840159
:10389000A80CB91C0F2EF5E4EF2EF2E0FF2EF02D50
:1038A000D7015296ED91FC915397D8018D918D01DE
:1038B00019950A151B05A1F70FC0E982DA824B8220
:1038C00063E070E0CE0101961995E0915B02F09102
:1038D0005C02B501C401199505E412E0D8011E96F9
:1038E000ED91FC911F971995D8011A96ED91FC91D5
:1038F0001B9719950F900F900F90DF91CF911F910B
:103900000F91FF90EF90DF90CF90BF90AF909F907E
:103910008F907F906F905F904F9008958F929F92BD
:10392000AF92BF92CF92DF92EF92FF920F931F93CD
:10393000CF93DF9324E0829FC00111246C012FEF0D
:10394000C21AD20ACC0CDD1CCC0CDD1CCC0CDD1C4C
:10395000460180EE981A092C000CAA08BB082FED2E
:10396000D21A0D2C000CEE08FF0800E010E0C50193
:10397000B401E5DDC82FD0E0DC2FCC27C701B601AC
:10398000DEDDC80FD11D209761F0C501B401D7DD80
:10399000082F10E0102F0027C701B601D0DD080F57
:1039A000111D0C171D0719F7CE01DF91CF911F9143
:1039B0000F91FF90EF90DF90CF90BF90AF909F90CE
:1039C0008F9008958F929F92AF92BF92CF92DF9285
:1039D000EF92FF920F931F93CF93DF9324E0829F88
:1039E000C00111246C012FEFC21AD20ACC0CDD1CCD
:1039F000CC0CDD1CCC0CDD1C46018AED981A092C80
:103A0000000CAA08BB0829EDD21A0D2C000CEE08F8
:103A1000FF0800E010E0C501B40191DDC82FD0E03F
:103A2000DC2FCC27C701B6018ADDC80FD11D209736
:103A300061F0C501B40183DD082F10E0102F0027CD
:103A4000C701B6017CDD080F111D0C171D0719F702
:103A5000CE01DF91CF911F910F91FF90EF90DF90FA
:103A6000CF90BF90AF909F908F9008952F923F92EC
:103A70004F925F926F927F928F929F92AF92BF927E
:103A8000CF92DF92EF92FF920F931F93CF93DF932A
:103A900000D01F92CDB7DEB74115510509F456C0CD
:103AA0001A017A836983882E912C880C991C880CC2
:103AB000991C64012FEFC21AD20ACC0CDD1CCC0C6D
:103AC000DD1CCC0CDD1C26013CED531A052C000C32
:103AD00066087708C301B20132DD082F8BEDD81AD2
:103AE0000D2C000CEE08FF08C701B60128DD10E020
:103AF000102F0027080F111D94012E5F3F4F220F3A
:103B0000331F220F331F220F331FC901330FAA0B9C
:103B1000BB0BA80160E070E0762F652F542F44277F
:103B20004C015D01840E951EA61EB71EC501B40191
:103B3000910149815A8164DE020D131D412FC30199
:103B4000B20164DD402FC701B60160DD0F900F9018
:103B50000F900F90DF91CF911F910F91FF90EF90F9
:103B6000DF90CF90BF90AF909F908F907F906F909D
:103B70005F904F903F902F9008952F923F924F92D9
:103B80005F926F927F928F929F92AF92BF92CF92ED
:103B9000DF92EF92FF920F931F93CF93DF9300D0AA
:103BA0001F92CDB7DEB74115510509F456C01A0171
:103BB0007A836983882E912C880C991C880C991C17
:103BC00064012FEFC21AD20ACC0CDD1CCC0CDD1C18
:103BD000CC0CDD1C260138ED531A052C000C6608B0
:103BE0007708C301B201ABDC082F87EDD81A0D2C82
:103BF000000CEE08FF08C701B601A1DC10E0102F91
:103C00000027080F111D94012D5F3F4F220F331F16
:103C1000220F331F220F331FC901330FAA0BBB0B17
:103C2000A80160E070E0762F652F542F44274C01E7
:103C30005D01840E951EA61EB71EC501B40191013B
:103C400049815A8155DD020D131D412FC301B20177
:103C5000DDDC402FC701B601D9DC0F900F900F902B
:103C60000F90DF91CF911F910F91FF90EF90DF9018
:103C7000CF90BF90AF909F908F907F906F905F900C
:103C80004F903F902F9008958F929F92AF92BF9246
:103C9000CF92DF92EF92FF921F93CF93DF93EB01CE
:103CA00024E0829FC00111246C012FEFC21AD20AB6
:103CB000CC0CDD1CCC0CDD1CCC0CDD1C460188EDD5
:103CC000981A092C000CAA08BB08C501B40137DCFE
:103CD000182F27EDD21A0D2C000CEE08FF08C70193
:103CE000B6012DDC212F30E0322F2227C80FD11D45
:103CF000C20FD31F4D2FC501B40188DC4C2FC70163
:103D0000B60184DCDF91CF911F91FF90EF90DF909F
:103D1000CF90BF90AF909F908F9008950895089591
:103D200008950895FB0180810895FB014083089563
:103D300080E00895089508950895009719F0611599
:103D4000710559F4E5E4F2E080E99EE19587848706
:103D500081E99EE1978786870895E5E4F2E09587FB
:103D600084877787668708952091450230914602BF
:103D70002227327021153105E9F3009719F06115FA
:103D8000710559F4E5E4F2E088E99EE1918B808BBE
:103D90008AE99EE1938B828B0895E5E4F2E0918BB2
:103DA000808B738B628B089520914502309146027F
:103DB0002227327021153105E9F3009719F06115BA
:103DC000710559F4E5E4F2E08BE99EE1958B848B73
:103DD0008CE99EE1978B868B0895E5E4F2E0958B64
:103DE000848B778B668B0895CF93DF93CDB7DEB747
:103DF00062970FB6F894DEBF0FBECDBF26E030E06D
:103E0000AE01435F5F4F60E079E080E090E070DCFE
:103E100024E030E0AE014F5F5F4F60E071E080E092
:103E200090E066DC24E030E0AE014B5F5F4F60E085
:103E300075E080E090E05CDC24E030E0AE01475FBC
:103E40005F4F60E07FE080E090E052DC40E860E0BF
:103E500070E0CB01DBDB60E070E0CB0170DB26E0E3
:103E600030E0AE01435F5F4F60E079E080E090E0DA
:103E7000C7DC24E030E0AE014F5F5F4F60E071E0EF
:103E800080E090E0BDDC24E030E0AE014B5F5F4FAE
:103E900060E075E080E090E0B3DC24E030E0AE016B
:103EA000475F5F4F60E07FE080E090E0A9DC6296D2
:103EB0000FB6F894DEBF0FBECDBFDF91CF9108954E
:103EC000EF92FF920F931F93CF93DF93EC017B014F
:103ED0008BDF209709F458C0888181310CF043C0F2
:103EE000FE0131969E01285F3F4F9191890F8131EC
:103EF000E4F5E217F307C9F78E01C1E0D0E0F8015D
:103F000041918F01BE01660F771F660F771F660F05
:103F1000771F715E072E000C880B990B77DB2496B8
:103F2000C132D10561F730C09191890F8131FCF424
:103F3000E217F307C9F7C1E0D0E0F70141917F0133
:103F4000BE01660F771F660F771F660F771F725EC1
:103F5000072E000C880B990B59DB2496C132D10532
:103F600061F780E015C08FEF13C08FEF11C08FEFA6
:103F70000FC08FEF0DC0F70180818131D4F73196EA
:103F80009701285F3F4FD0CFE114F104A1F780E003
:103F9000DF91CF911F910F91FF90EF900895CF93F4
:103FA000C92F482F407F60E075E180E090E02EDB74
:103FB0004C2F60E077E180E090E028DBCF9108951E
:103FC000CF9360E075E180E090E0B9DAC82F60E05F
:103FD00077E180E090E0B3DA90E0982F8827C07F07
:103FE0008C0F911DCF910895CF93C92F482F60E07A
:103FF00076E180E090E00ADB4C2F60E078E180E041
:1040000090E004DBCF910895CF9360E076E180E00B
:1040100090E095DAC82F60E078E180E090E08FDAF8
:1040200090E0982F88278C0F911DCF91089560E024
:104030007EE280E090E083DA8170089560E07EE2C5
:1040400080E090E07CDA982F987381E0903309F05B
:1040500080E0089560E07EE280E090E070DA482F32
:104060004F7760E07EE280E090E0D0DA60E07EE2D0
:1040700080E090E064DA482F406860E07EE280E013
:1040800090E0C4CA0895FC018081813011F040E0C5
:1040900001C040E48181813011F448630EC0838106
:1040A000813039F48281813011F4486106C0486062
:1040B00004C08281813009F4406160E07EE280E0EA
:1040C00090E0A4DAC7CF0895CF93DF93EC0160E0CE
:1040D0007EE280E090E033DA86FB992790F99883BE
:1040E0008873803211F0883319F491E0998301C00C
:1040F0001982883121F0803211F0803119F491E079
:104100009A8301C01A82883121F0803211F0883000
:1041100019F481E08B8301C01B82DF91CF91089558
:10412000CF93C82F60E07EE280E090E008DA86FF5F
:1041300024C0877CC13081F4482F406360E07EE278
:1041400080E090E063DA86DF60E07EE280E090E08D
:10415000F6D98073A1F40FC0482F486360E07EE277
:1041600080E090E053DA76DF60E07EE280E090E08D
:10417000E6D9887331F48FEF05C08FEF03C080E07C
:1041800001C080E0CF9108951F93CF93DF9390E01B
:104190008031910508F077C0EB01FC018827E656D5
:1041A000FF4F8F4F0C94DE3E80E072C01DDE80E03A
:1041B0006FC0209719F0685F7F4F02C060E070E029
:1041C000CE017EDE65C088819981E9DE80E060C035
:1041D000F7DE9983888380E05BC08881998104DF62
:1041E00080E056C011DF9983888380E051C0498107
:1041F00060E073E180E090E009DA488160E074E11A
:1042000080E090E003DA80E043C060E073E180E0AA
:1042100090E095D9182F60E074E180E090E08FD9AC
:10422000212F30E0322F2227280F311D3983288398
:1042300080E02EC0E5E4F2E0828188838381898377
:1042400084818A8385818B8386818C831D8280E033
:104250001FC000DF80E01CC0CB0115DF80E018C06C
:10426000CB0132DF80E014C088815ADF11C0E6DE66
:104270008F3F59F0888380E00BC0D9DE8F3F39F043
:10428000888380E005C08FEF03C08FEF01C08FEF00
:10429000DF91CF911F910895CF93DF93EC0126E03A
:1042A00030E0AC0160E079E080E090E0A9DAAE01B6
:1042B000425F5F4F24E030E060E071E080E090E03A
:1042C0009FDAAE01465F5F4F24E030E060E075E0CA
:1042D00080E090E095DAAE014A5F5F4F24E030E085
:1042E00060E07FE080E090E08BDAE2EFF4E08A8942
:1042F00080838B8981838C8982838D8983838E8956
:104300008093F104DF91CF910895CF93DF93EC0177
:1043100026E030E0AC0160E079E080E090E0E8D9B0
:10432000AE01425F5F4F24E030E060E071E080E08A
:1043300090E0DED9AE01465F5F4F24E030E060E000
:1043400075E080E090E0D4D9AE014A5F5F4F24E091
:1043500030E060E07FE080E090E0CAD9E2EFF4E096
:1043600080818A8B81818B8B82818C8B83818D8BE9
:104370008091F1048E8BDF91CF91089514BE0FB61A
:10438000F894A895809160008861809360001092F5
:1043900060000FBEE1E6F0E080E880831082789450
:1043A00001C008951092552480E197E29093A900EE
:1043B0008093A800E1EAF0E088E080838081826059
:1043C0008083E2E7F0E080818260808308951F921D
:1043D0000F920FB60F9211248F93809155248F5F07
:1043E000809355248F910F900FBE0F901F901895BA
:1043F0001F920F920FB60F9211248F9381E080933A
:10440000F6048F910F900FBE0F901F901895DC014E
:10441000CB01880F991FAA1FBB1F880F991FAA1FC6
:10442000BB1F9C01AD01220F331F441F551F220FDC
:10443000331F441F551F60E074E284EF90E00E9438
:10444000BC3EBA01A9014150510961097109BB275C
:10445000A72F962F852F8093CD004093CC0082E02C
:104460008093C80088E98093C90086E08093CA00E1
:10447000E5E2F8E084E996E09187808780E991E0C1
:10448000958384831782168211821082138212828E
:10449000EAE8F6E029EF34E03187208795838483CA
:1044A00017821682118210821382128281E0809319
:1044B000F8041092F7040895CF93DF93E5E2F8E053
:1044C000268137816481758126173707C9F0C08539
:1044D000D18542815381DA011196B383A283FE0113
:1044E000E40FF51F80836A177B0721F410922808D8
:1044F000109227082F5F3F4F30932C0820932B08F2
:10450000DF91CF9108954FB7F894EAE8F6E020855F
:10451000318580819181BC016F5F7F4F71836083A2
:10452000D901A80FB91F8C916081718124813581D7
:104530006217730721F410928B0610928A06EAE83C
:10454000F6E02681378121503109378326834FBF1A
:1045500008951F920F920FB60F9211240BB60F926F
:104560008F93EF93FF9381E08093F804E9ECF0E000
:1045700080818F7D8083FF91EF918F910F900BBE93
:104580000F900FBE0F901F9018951F920F920FB6AD
:104590000F9211240BB60F922F933F934F935F937B
:1045A0006F937F938F939F93AF93BF93EF93FF93FB
:1045B0008091C8002091CE008C7159F5EAE8F6E0B0
:1045C00046815781848195814817590711F14085AB
:1045D000518582819381BC016F5F7F4F73836283BA
:1045E000DA01A80FB91F2C93228133818481958130
:1045F0002817390721F410928D0610928C06EAE8EC
:10460000F6E08681978101969783868381E0809387
:10461000F704FF91EF91BF91AF919F918F917F919F
:104620006F915F914F913F912F910F900BBE0F9023
:104630000FBE0F901F90189580912B0890912C0819
:10464000009769F12091F804222349F1E5E2F8E0AE
:104650006085718520813181A9014F5F5F4F518352
:104660004083DB01A20FB31F2C9164817581461733
:10467000570721F41092260810922508019790936D
:104680002C0880932B089FB7F8942093CE00E9EC78
:10469000F0E08081806280831092F8049FBF2FB782
:1046A000F8949091F7041092F7044091900650917D
:1046B00091062FBF992319F0CA010C94990308950C
:1046C000E8ECF0E0908195FFFDCF8093CE0080E094
:1046D00090E00895549A5C9A84B1866184B985B15A
:1046E000866085B980E58CBD1DBC0895FC01808184
:1046F0009181A281B3818F3F2FEF9207A105B10570
:1047000039F0BC01CD016F5F7F4F8F4F9F4F04C0C9
:1047100061E070E080E090E0608371838283938346
:1047200008952F923F924F925F926F927F928F9255
:104730009F92AF92BF92CF92DF92EF92FF920F9330
:104740001F93CF93DF93EC012A013B01190114164B
:104750001506160617061CF1812C912C540126C053
:10476000EFA5F8A9C680D780C101FFD77B018C01D6
:104770008C859D85BC01680D791DA30192018FA5D3
:1047800098A9F601199599238CF0860E971EA81EFC
:10479000B91E84149504A604B70424F007C0812C24
:1047A000912C5401C1017FD78823D1F248145904B8
:1047B0006A047B0459F4488959896A897B89CE0146
:1047C000C196A9D760E070E0CB0103C06FEF7FEF27
:1047D000CB01DF91CF911F910F91FF90EF90DF9070
:1047E000CF90BF90AF909F908F907F906F905F9091
:1047F0004F903F902F900895AF92BF92CF92DF924B
:10480000EF92FF920F931F93FC0170AB67A7128E7C
:10481000118E168E158E12A211A216A215A212A624
:1048200011A6248335834683578315870487F18631
:10483000E086D786C686B386A286158A168A178A28
:10484000108E148A16A615A6C196ABD71F910F918C
:10485000FF90EF90DF90CF90BF90AF9008952F9290
:104860003F924F925F926F927F928F929F92AF9200
:10487000BF92CF92DF92EF92FF920F931F93CF934D
:10488000DF9300D01F921F92CDB7DEB71C016B01E2
:104890002A833B834C835D83DB011D921D921D9215
:1048A0001C921397412C512C32014394812C912C52
:1048B000540183940CC0BFEF4B1A5B0A6B0A7B0A4E
:1048C000E5E04E1651046104710409F451C0D101B0
:1048D0009F968D919C91D097DC011496ED91FC915F
:1048E0001597EA80FB800C811D8121E030E040E0DB
:1048F00050E0BE016F5F7F4F1995613071058105F2
:104900009105B1F5F980AF2DAF77B0E0A501940125
:104910000E94E63EF6010081118122813381DC0193
:10492000CB01800F911FA21FB31F80839183A283AD
:10493000B383880C991CAA1CBB1C880C991CAA1C4C
:10494000BB1C880C991CAA1CBB1C880C991CAA1C9B
:10495000BB1C880C991CAA1CBB1C880C991CAA1C8B
:10496000BB1C880C991CAA1CBB1CFF200CF4A3CFF9
:10497000C301B2010F900F900F900F900F90DF9135
:10498000CF911F910F91FF90EF90DF90CF90BF904C
:10499000AF909F908F907F906F905F904F903F90DF
:1049A0002F9008954F925F926F927F928F929F9275
:1049B000AF92BF92CF92DF92EF92FF920F931F932D
:1049C000CF93DF9300D01F92CDB7DEB76C015B01B0
:1049D00019821A821B821C82DC019F96ED91FC9148
:1049E000D09784809580CB01C0D67B018C01F601E5
:1049F0006685778521E030E040E050E087A590A90A
:104A0000F4011995613071058105910509F052C0D5
:104A1000C501ABD69B01AC01BE016F5F7F4FC601E4
:104A20001EDF49815A816B817C81D6011E968D9152
:104A30009C911F9701960E941C2F2B013C0189819C
:104A40009A81AB81BC81181619061A061B0634F52B
:104A5000D6019F96ED91FC91D09784809580C501F9
:104A600084D67B018C0129813A814B815C81BFEF27
:104A70004B1A5B0A6B0A7B0AF60166857785640D23
:104A8000751D87A590A9F401199509811A812B81BB
:104A90003C81601771078207930781F4D6011E9647
:104AA000ED91FC911F97608162956F7070E080E0DE
:104AB00090E007C06FEF7FEFCB0103C06FEF7FEF98
:104AC000CB010F900F900F900F90DF91CF911F911E
:104AD0000F91FF90EF90DF90CF90BF90AF909F909D
:104AE0008F907F906F905F904F900895CF93DF935A
:104AF000DC01EB01EE81FF814A815B814E0F5F1F7C
:104B00009C91992309F446C0E417F507C0F5119666
:104B10009A012150310901C0119680818F3219F418
:104B20009F32E1F024C09B3229F0933299F089172B
:104B3000A9F01DC0CF0101968417950788F58181E2
:104B40008F3219F13196E217F30739F091819F32D4
:104B5000C9F71BC0FA01319701C0F90131969C9148
:104B60009923C1F0E417F507B8F280E01EC04E1794
:104B70005F0739F481E09923C1F080E016C080E03E
:104B800014C080E012C080E010C031969C91911159
:104B9000C3CFEDCF81E04E175F0739F080E005C04D
:104BA00031968C918111EFCFF5CFDF91CF910895A0
:104BB0002F923F924F925F926F927F928F929F922D
:104BC000AF92BF92CF92DF92EF92FF920F931F931B
:104BD000CF93DF9300D01F92CDB7DEB74C016B01AE
:104BE0001A018C015C0184E1A80EB11C44244A9492
:104BF000542C32017801D80159966D917C915A97C5
:104C00006115710501F1C6010E946931672B682B9E
:104C1000692B39F4B601F801818D928D67DF882305
:104C200091F0D7015B96ED91FC915C97309759F02C
:104C3000DC82CB823A822982CE0101961995412CE1
:104C4000512C612C712C0C5F1F4F0A151B0591F61E
:104C5000BFEF4B165B066B067B0689F4D4019D966D
:104C6000ED91FC919E97309751F0DC82CB823A8295
:104C70002982CE0101961995412C512C3201C30194
:104C8000B2010F900F900F900F90DF91CF911F9175
:104C90000F91FF90EF90DF90CF90BF90AF909F90DB
:104CA0008F907F906F905F904F903F902F900895DE
:104CB0000F931F93CF93DF93CDB7DEB728970FB62F
:104CC000F894DEBF0FBECDBFFC01408951896289D7
:104CD0007389452B462B472BA1F18C01C196E3D458
:104CE000882399F1F8018489811133C0CE0101969E
:104CF00058D548EE53E060E070E0CE010196F1D463
:104D0000F8014085518560E070E0848595857DD708
:104D1000161617061806190684F49E012F5F3F4FDA
:104D2000AB01BC01C801FDDC611571058105910570
:104D300099F421E0F801248B0FC06FEF7FEFCB01D6
:104D40000BC060E070E0CB0107C06FEF7FEFCB01DD
:104D500003C06FEF7FEFCB0128960FB6F894DEBF4C
:104D60000FBECDBFDF91CF911F910F9108952F926C
:104D70003F924F925F926F927F928F929F92AF92EB
:104D8000BF92CF92DF92EF92FF920F931F93CF9338
:104D9000DF93CDB7DEB762970FB6F894DEBF0FBED4
:104DA000CDBF4C011B01FEDD2B013C0185E0481607
:104DB000510409F481C09DE04916510409F4AFC0C3
:104DC000E3E04E16510409F0B0C0F401A684B784A4
:104DD000828593851F921F929F938F93CE01089691
:104DE0006C01FE0136967F018E01065F1F4F9E010A
:104DF0002C5F3F4FAE014E5F5F4FBE016F5F7F4F35
:104E0000059706D70F900F900F900F9061307105A6
:104E10008105910509F03EC0AE014F5F5F4FB801BB
:104E2000C401C6DE8981882309F442C0813081F43F
:104E3000EC80FD80F4014085518560E070E000E089
:104E400024E0848595850E947D32AB01BC0111C0B0
:104E5000823021F5EC80FD80F4014085518560E0D1
:104E600070E000E025E0848595850E947D32AB01ED
:104E7000BC011416150616061706ACF49101C40100
:104E800050DC6B017C016F3F7F4F8F4F9F4F09F0CC
:104E90004FC050C0C12CD12C76014CC0CC24CA9438
:104EA000DC2C760147C0CC24CA94DC2C760142C0AD
:104EB000C12CD12C76013CC0F401E284F38400E0E3
:104EC00010E026853785AE014F5F5F4FBE016E5EF5
:104ED0007F4FCE010A9639D7613071058105910562
:104EE00099F5E980FA80F4014085518560E070E031
:104EF00000E026E0848595850E947D32161617060F
:104F0000180619060CF59101AB01BC01C40109DCBE
:104F10006B017C01672B682B692BB1F409C0F4018C
:104F2000148AC12CD12C760103C0C12CD12C76015E
:104F3000C401BEDEC114D104E104F10449F47301DB
:104F40006201EE24FF2404C0CC24CA94DC2C760138
:104F5000C701B60162960FB6F894DEBF0FBECDBF93
:104F6000DF91CF911F910F91FF90EF90DF90CF9045
:104F7000BF90AF909F908F907F906F905F904F9079
:104F80003F902F9008958F929F92AF92BF92CF92B1
:104F9000DF92EF92FF920F931F93CF93DF938C01D9
:104FA0004A015B01E901CC24CA94DC2C7601CE01D4
:104FB0007AD381110CC0BE01C801D9DE6B017C011E
:104FC000681579058A059B0591F775016401C7018C
:104FD000B601DF91CF911F910F91FF90EF90DF907D
:104FE000CF90BF90AF909F908F900895EF92FF92D7
:104FF0000F931F93CF93DF93CDB7DEB7C554D1097D
:105000000FB6F894DEBF0FBECDBF7C018B018BE3E2
:10501000E2EEF2E0DE01199601900D928A95E1F739
:10502000CE010196BED3F701448155816681778117
:10503000CE01019656D3F70185899689A789B08D4F
:10504000892B8A2B8B2B09F06CC00115110519F4E3
:105050008E01075F1F4FF8014785508960E070E0BF
:10506000F701408B518B628B738BC701C19653D371
:10507000F7014085518560E070E098018485958551
:105080005DD4AB01BC0114161506160617060CF00C
:105090004CC09E012F5F3F4FC70143DB6115710577
:1050A0008105910509F04CC09E012F5F3F4F42E002
:1050B00050E060E070E0C70166DF62307105810595
:1050C0009105B9F58FEF26968FAF269725961FAEDF
:1050D0002597F7010285138520E030E04685578546
:1050E000BE016B5B7F4FCE018C5B9F4F15D561304E
:1050F00071058105910509F526966FAD269770E03B
:1051000080E090E06115710581059105C9F401E029
:1051100010E020E030E0F701058B168B278B308FF5
:105120000FC06FEF7FEFCB010BC06FEF7FEFCB01B5
:1051300007C06FEF7FEFCB0103C06FEF7FEFCB01B5
:10514000CB5BDF4F0FB6F894DEBF0FBECDBFDF9154
:10515000CF911F910F91FF90EF9008952F923F9262
:105160004F925F926F927F928F929F92AF92BF9277
:10517000CF92DF92EF92FF920F931F93CF93DF9323
:10518000CDB7DEB76F970FB6F894DEBF0FBECDBFB9
:105190003C017D8F6C8F4B8F3F8F2E8F1B861C8623
:1051A0001D861E86188A1F867A876987CE0101961A
:1051B000F8D2F3014481558166817781CE01019651
:1051C00090D2F30185899689A789B08D892B8A2B86
:1051D0008B2B09F49DC0C30189DA8B019C01F3017B
:1051E0004085518560E070E0CE014B964C01FE0198
:1051F00039965F01C12CD12C7601C39420E0F301D4
:10520000848595850E941C33AB01BC0114161506DC
:10521000160617060CF081C09E012F5F3F4FC30199
:1052200080DA1B012C01672B682B692B09F07EC0EB
:105230009E012F5F3F4F49E050E060E070E0C30106
:10524000A2DE693071058105910509F06BC01D8AE8
:105250001E8A1F8A188E8FEF9FEFDC01898B9A8B35
:10526000AB8BBC8BF301A284B384C12CD12CE6841C
:10527000F7848E010F5E1F4F9E012B5E3F4F41E072
:1052800050E060E070E0CE0149960E94C133613089
:1052900071058105910551F449895A896B897C8989
:1052A000403851056105710581F102C0B201A101CB
:1052B000F301818D928D892B49F081E090E0A0E08F
:1052C000B0E0258D368D232BA1F403C080E090E063
:1052D000DC01880F991F880F991FF301E80FF91F50
:1052E0008C8D9D8D928F818F8E8D9F8D948F838FCE
:1052F0001DC00196A11DB11D349685309105A105F3
:10530000B105F9F61A012B0111C01A012B010EC0CB
:1053100022242A94322C210109C022242A94322CDE
:10532000210104C022242A94322C2101C201B1019E
:105330006F960FB6F894DEBF0FBECDBFDF91CF9151
:105340001F910F91FF90EF90DF90CF90BF90AF90A3
:105350009F908F907F906F905F904F903F902F9095
:1053600008958F929F92AF92BF92CF92DF92EF9269
:10537000FF920F931F93CF93DF93CDB7DEB7649760
:105380000FB6F894DEBF0FBECDBF4C015A011B868D
:105390001C861D861E86188A1F867A876987CE011D
:1053A0000196FFD1F4014481558166817781CE0158
:1053B000019697D1F40185899689A789B08D892BAB
:1053C0008A2B8B2B09F4BBC0F50180818150823080
:1053D00028F4C4018BD9F50174836383F501C3807C
:1053E000D480F4014085518560E070E08485958526
:1053F000F501078110851F921F921F930F9326813D
:105400002F9325812F932DB73EB7285031090FB622
:10541000F8943EBF0FBE2DBFADB7BEB7119628E0C2
:10542000FE01399601900D922A95E1F7F501E18090
:10543000008120E0D0D7AB01BC010FB6F894DEBFED
:105440000FBECDBF14161506160617060CF07BC04E
:105450009E012F5F3F4FC40164D96115710581051D
:10546000910509F07BC0F5012081213099F59E015D
:105470002F5F3F4F44E050E060E070E0C40183DD07
:10548000643071058105910509F061C0F401E28481
:10549000F38400E010E026853785AE014F5E5F4F54
:1054A000BE016C5E7F4FCE0143964FD401E010E009
:1054B00020E030E0613071058105910519F400E0CC
:1054C00010E0980166277727CB01601B710B820BD8
:1054D000930B44C0223009F041C09E012F5F3F4F23
:1054E00047E050E060E070E0C4014DDD67307105D9
:1054F0008105910581F5F401E284F38400E010E078
:1055000026853785AE014F5E5F4FBE016C5E7F4FD3
:10551000CE0143961AD401E010E020E030E0613083
:1055200071058105910519F400E010E098016627E6
:105530007727CB01601B710B820B930B0FC06FEFB2
:105540007FEFCB010BC06FEF7FEFCB0107C06FEF99
:105550007FEFCB0103C06FEF7FEFCB0164960FB6F7
:10556000F894DEBF0FBECDBFDF91CF911F910F9199
:10557000FF90EF90DF90CF90BF90AF909F908F9073
:105580000895CF92DF92EF92FF920F931F93CF93E4
:10559000DF93EC018B0169017A0188819981AA81ED
:1055A000BB81880F991FAA1FBB1F880F991FAA1FB5
:1055B000BB1F0196A11DB11D880F991FAA1FBB1FFC
:1055C000880F991FAA1FBB1F880F991FAA1FBB1FF7
:1055D000BC01CD017D5F8F4F9F4F0E949F1A873185
:1055E00059F488810E94E21C892B51F0A601B80170
:1055F00088810E94901607C060E070E0CB0103C074
:1056000060E070E0CB01DF91CF911F910F91FF908F
:10561000EF90DF90CF900895CF92DF92EF92FF92BC
:105620000F931F93CF93DF93EC018B0169017A01F4
:1056300088819981AA81BB81880F991FAA1FBB1FEE
:10564000880F991FAA1FBB1F0196A11DB11D880FAE
:10565000991FAA1FBB1F880F991FAA1FBB1F880F66
:10566000991FAA1FBB1FBC01CD017D5F8F4F9F4FAC
:105670000E949F1A873131F4A601B80188810E94E7
:10568000851503C060E070E0CB01DF91CF911F91E1
:105690000F91FF90EF90DF90CF900895FC018081F3
:1056A0000C9403150895CF92DF92EF92FF92FC01C4
:1056B000C480D580E680F7800E949304A7019601FC
:1056C000261B370B480B590BDA01C9018827B7FD98
:1056D00083959927AA27BB27FF90EF90DF90CF9063
:1056E0000895CF92DF92EF92FF92CF93DF93EC0178
:1056F0006A017B010E949304C60ED71EE81EF91EA4
:10570000CC82DD82EE82FF82DF91CF91FF90EF901D
:10571000DF90CF9008958F929F92AF92BF92CF92D9
:10572000DF92EF92FF92CF93DF93EC014A015B018E
:105730000E9493046B017C01A8EEB3E0A5019401E3
:105740000E94E63EC60ED71EE81EF91ECC82DD8200
:10575000EE82FF82DF91CF91FF90EF90DF90CF90AC
:10576000BF90AF909F908F900895CF92DF92EF926D
:10577000FF92FC01C480D580E680F7800E949304EC
:10578000A7019601261B370B480B590BCA01B9011B
:105790001AF460E070E0CB01FF90EF90DF90CF90C3
:1057A0000895FC0114821582168217820895FC0167
:1057B00081EC9AE2958384838CE09BE297838683D5
:1057C0008EE49BE2918780870895EF92FF920F937A
:1057D0001F93CF93DF93EC018B017A0120E049E323
:1057E00050E361E088810E94C712A701B801888157
:1057F0000E94241460E070E0CB01DF91CF911F91F3
:105800000F91FF90EF9008958F929F92AF92BF9269
:10581000CF92DF92EF92FF92CF93DF93EC018E81D4
:10582000833051F0843081F40F2EFAE0CF2ED12C4A
:10583000E12CF12CF02D0BC00F2EFCE0CF2ED12C43
:10584000E12CF12CF02D03C0C12CD12C76012F813D
:10585000388549855A856B857C858D859E850BD5D8
:10586000DC01CB010296A11DB11DC80ED91EEA1E96
:10587000FB1E8A89882309F1298D3A8D4B8D5C8D19
:105880006D8D7E8D8F8D98A1F6D44B015C0129A181
:105890003AA14BA15CA16DA17EA18FA198A5EBD4EB
:1058A000DC01CB01880D991DAA1DBB1D0496A11D0D
:1058B000B11DC80ED91EEA1EFB1E8BA59CA5892B07
:1058C00021F489A99AA9892B91F02BA53CA54DA576
:1058D0005EA56FA578A989A99AA9CDD4DC01CB01D1
:1058E0000296A11DB11DC80ED91EEA1EFB1E8BA972
:1058F0009CA9892B21F489AD9AAD892B91F02BA914
:105900003CA94DA95EA96FA978AD89AD9AADB3D474
:10591000DC01CB010296A11DB11DC80ED91EEA1EE5
:10592000FB1EC701B601DF91CF91FF90EF90DF9092
:10593000CF90BF90AF909F908F9008954F925F92BD
:105940006F927F92AF92BF92DF92EF92FF920F938E
:105950001F93CF93DF9300D000D0CDB7DEB75C01AB
:105960002A013B0179019A838983C9014DDF6B8349
:105970007C838D839E833DD3461657066806790641
:105980000CF4B2C060E1CE01019684D34B815C81FE
:105990006D817E8189819A814FD229813A81620FFE
:1059A000731F7A836983F7018681843051F46EEA2C
:1059B00073E0CE010196A6D364E0CE0101966AD3CE
:1059C00009C063EB73E0CE0101969CD363E0CE0186
:1059D000019660D3D12CF701818980FBD1F881E059
:1059E0009289911101C080E080FBD2F8D2FE0DC0F7
:1059F000F70182A58370880F880F880F9D2D977EF1
:105A0000D92ED82A81A580FBD5F8F70183A594A5C6
:105A1000892B21F481A992A9892B11F06894D7F8D8
:105A2000F70183A994A9892B21F481AD92AD892B2B
:105A300011F06894D6F86D2DCE0101962BD3F701A5
:105A40004785508960E070E0CE0101962DD3F701C3
:105A50000781108521853285438554856585768546
:105A6000CE01019677D3F70182898823B9F0018DA1
:105A7000128D238D348D458D568D678D70A1CE018D
:105A8000019668D3F70101A112A123A134A145A178
:105A900056A167A170A5CE0101965CD37D2CDD20B7
:105AA00064F4F70103A514A525A536A547A550A9BB
:105AB00061A972A9CE0101964DD376FE0CC0F70103
:105AC00003A914A925A936A947A950AD61AD72ADA6
:105AD000CE0101963FD369817A816A197B09072E2D
