S00C00004C4142312E7372656318
S113000099C00000B6C00000B4C00000B2C0000037
S1130010B0C00000AEC00000ACC00000AAC0000028
S1130020A8C00000A6C00000A4C00000A2C0000038
S1130030A0C000009EC000009CC000009AC0000048
S113004098C0000096C0000094C0000092C0000058
S113005090C000008EC000008CC000008AC0000068
S113006088C0000086C0000084C0000082C0000078
S113007080C000007EC000007CC000007AC0000088
S113008078C0000076C0000074C0000072C0000098
S113009070C000006EC000006CC000006AC00000A8
S11300A068C0000066C0000064C0000062C00000B8
S11300B060C000005EC000005CC000005AC00000C8
S11300C058C0000056C0000054C0000052C00000D8
S11300D050C000004EC000004CC000004AC00000E8
S11300E048C0000046C0000044C0000042C00000F8
S11300F040C000003EC000003CC000003AC0000008
S113010038C0000036C0000034C0000032C0000017
S113011030C000002EC000002CC000002AC0000027
S113012028C0000026C0000024C0000022C0000037
S113013020C0000011241FBECFEFD1E8DEBFCDBF29
S113014000E00CBF12E0A0E0B2E0E6E1FCE000E079
S11301500BBF02C007900D92AE3CB107D9F723E064
S1130160AEECB2E001C01D92A632B207E1F792D024
S113017050C546CF9C01215031092230310540F051
S11301808EE092E09F938F933ED20F900F9008954C
S11301908230910579F4EEECF2E081E681938F5F91
S11301A08B37E1F7E8EEF2E081E481938F5F8B35E2
S11301B0E1F70895019771F4EEECF2E081E48193A4
S11301C08F5F8B35E1F7E8EEF2E081E681938F5F94
S11301D08B37E1F70895CF92DF92EF92FF920F935E
S11301E01F93CF93DF93CEECD2E00F2EF2E0CF2E0D
S11301F0F3E0DF2EF02D088110E0C801B9D1892B7E
S113020021F0C801C3D1888307C0C801AED1892BAE
S113021019F0C801B3D188832196CC15DD0559F7AF
S1130220DF91CF911F910F91FF90EF90DF90CF90CE
S11302300895EF92FF920F931F93CF93DF93CEEC29
S1130240D2E00F2EF2E0EF2EF3E0FF2EF02D0FE1BF
S113025012E089911F928F931F930F93D4D10F9023
S11302600F900F900F90CE15DF0599F78AE090E07C
S1130270DDD1DF91CF911F910F91FF90EF90089501
S113028080E096E911D180E092E09093230380937B
S113029022030895CF93DF93CDB7DEB7E7970FB668
S11302A0F894DEBF0FBECDBFEBDF2FEF59E668E158
S11302B0215050406040E1F700C0000083E292E02A
S11302C09F938F93A0D18FEF99E628E181509040BE
S11302D02040E1F700C000001F928AE08F9382E380
S11302E092E09F938F938FD181E08F938EEF8F93C2
S11302F084E492E09F938F9386D11F9282E08F9340
S113030086E592E09F938F937ED189E0E4ECF2E05E
S1130310DE01119601900D928A95E1F74AE0BE0143
S1130320665F7F4F88EC90E04BD18E01025F1F4FD8
S1130330BE016F5F7F4FC8013CD1BE01665F7F4F36
S1130340C8012CD11F930F9388E692E09F938F935B
S11303505AD11F9288EC8F938DE792E09F938F93ED
S11303600C5E1F4F1F930F9366D11F930F9388E862
S113037092E09F938F9347D182E090E0FBDE59DFB8
S11303802ADF57DF8CE090E09FAB8EAB1F928F93F8
S11303908EE992E09F938F9336D10FB6F894DEBF27
S11303A00FBECDBFCE01C6969F938F9380EB92E094
S11303B09F938F9328D184B1806684B96B9A0F90F0
S11303C00F900F900F9020E688E040E230E425B9CA
S11303D08EB99FEF54E36CE0915050406040E1F7D8
S11303E000C0000015B81EB89FEF54E36CE09150B4
S11303F050406040E1F700C0000025B98EB99FEF7E
S113040054E36CE0915050406040E1F700C00000BC
S113041015B81EB89FEF54E36CE091505040604013
S1130420E1F700C0000025B98EB99FEF54E36CE0FA
S1130430915050406040E1F700C0000015B81EB86C
S11304409FEF54E36CE0915050406040E1F700C0EE
S113045000002D9A2E9A739A9FEF54E36CE091500A
S113046050406040E1F700C000002D982E9873982A
S11304709FEF54E36CE0915050406040E1F700C0BE
S1130480000095B1942795B995B1932795B99EB17C
S113049098279EB99FEF54E36CE091505040604020
S11304A0E1F700C0000093CF9C0140E050E060E21F
S11304B071EA87E090E01BD0215031093093CD00E0
S11304C02093CC00E9ECF0E088E1808386E080931F
S11304D0CA008081806880830895E8ECF0E0908110
S11304E095FFFDCF8093CE0080E090E00895052E27
S11304F097FB16F400940FD057FD05D014D007FCD9
S113050002D046F408C050954095309521953F4F50
S11305104F4F5F4F089590958095709561957F4FEB
S11305208F4F9F4F0895A1E21A2EAA1BBB1BFD01FA
S11305300DC0AA1FBB1FEE1FFF1FA217B307E407BE
S1130540F50720F0A21BB30BE40BF50B661F771F16
S1130550881F991F1A9469F76095709580959095F6
S11305609B01AC01BD01CF01089585FD8FC280625E
S113057091118CC281568A51E0F708959111089522
S113058081548A5108F4805E855A08959111089522
S113059081568A5108F4805285580895FB01DC0184
S11305A00D900020E9F7119701900D920020E1F7DA
S11305B00895FB01DC0101900D920020E1F70895FC
S11305C0BB274A3031F4992322F4BDE290958195FA
S11305D09F4F01C0BB27FB015527AA27880F991FEE
S11305E0AA1FA41710F0A41B83955051B9F7A05D5E
S11305F0AA3308F0A95DA193009779F7B111B193DB
S11306001192CB015CC2CF93DF93CDB7DEB7AE01BD
S11306104A5F5F4FFA0161917191AF0180912203AA
S11306209091230336D0DF91CF91089560912203F6
S11306307091230354C20F931F93CF93DF93CDB7CD
S1130640DEB72E970FB6F894DEBF0FBECDBF0E896E
S11306501F8986E08C831A8309838FEF9FE79E832B
S11306608D83AE01465E5F4F688D798DCE01019614
S113067010D0EF81F885E00FF11F10822E960FB68F
S1130680F894DEBF0FBECDBFDF91CF911F910F91C4
S113069008952F923F924F925F926F927F928F9222
S11306A09F92AF92BF92CF92DF92EF92FF920F93FD
S11306B01F93CF93DF93CDB7DEB72B970FB6F89484
S11306C0DEBF0FBECDBF6C017B018A01FC01178226
S11306D01682838181FFBFC1CE0101963C01F601E0
S11306E09381F70193FD859193FF81917F01882385
S11306F009F4ADC1853239F493FD859193FF81915D
S11307007F01853221F4B60190E0E9D1E8CF912C44
S1130710212C312CFFE1F315D8F08B3279F038F429
S1130720803279F08332A1F4232D20611DC08D32F3
S113073061F0803369F4232D216016C0832D82601B
S1130740382EE32DE4603E2E2AC0F32DF8601DC040
S113075037FC2DC020ED280F2A3040F08E32B9F43A
S113076036FC75C1232D2064322E19C036FE06C016
S11307708AE0989E200D1124922E11C0EAE02E9E4C
S1130780200D1124222EF32DF0623F2E08C08C364A
S113079021F4832D8068382E02C0883641F4F70195
S11307A093FD859193FF81917F018111B3CF982FA0
S11307B09F7D9554933028F40C5F1F4F9FE39983DA
S11307C00DC0833631F0833771F0833509F055C09D
S11307D020C0F801808189830E5F1F4F8824839491
S11307E0912C530112C02801F2E04F0E511CF80164
S11307F0A080B18036FE03C0692D70E002C06FEFA7
S11308007FEFC50151D14C018201F32DFF773F2EBB
S113081015C0280122E0420E511CF801A080B180CD
S113082036FE03C0692D70E002C06FEF7FEFC50193
S113083030D14C01F32DF0683F2E820133FC19C0F6
S1130840822D90E088169906A0F4B60180E290E02B
S113085046D12A94F5CFF50137FC859137FE819175
S11308605F01B60190E03BD121102A9421E0821A65
S113087091088114910479F7E1C0843611F0893626
S113088039F5F80137FE07C0608171818281938157
S11308900C5F1F4F08C060817181072E000C880B0C
S11308A0990B0E5F1F4FF32DFF763F2E97FF09C064
S11308B090958095709561957F4F8F4F9F4FF0680D
S11308C03F2E2AE030E0A30146D1882E861844C08A
S11308D0853731F4232D2F7EB22E2AE030E025C057
S11308E0932D997FB92E8F36C1F018F4883579F09D
S11308F0AEC0803719F0883721F0A9C0E92FE06134
S1130900BE2EB4FE0DC0FB2DF460BF2E09C034FE14
S11309100AC0292F2660B22E06C028E030E005C0A8
S113092020E130E002C020E132E0F801B7FE07C068
S113093060817181828193810C5F1F4F06C0608149
S1130940718180E090E00E5F1F4FA30104D1882ED7
S11309508618FB2DFF773F2E36FE0DC0232D2E7FEC
S1130960A22E891458F434FE0BC032FC09C0832D26
S11309708E7EA82E05C0B82CA32C03C0B82C01C0B1
S1130980B92CA4FE0FC0FE01E80DF11D8081803357
S113099021F49A2D997EA92E09C0A2FE06C0B39413
S11309A0B39404C08A2D867809F0B394A3FC10C0D4
S11309B0A0FE06C0B21480F4280C922C9B180DC023
S11309C0B21458F4B60180E290E089D0B394F8CF21
S11309D0B21418F42B1802C0982C212CA4FE0FC0BA
S11309E0B60180E390E07BD0A2FE16C0A1FC03C058
S11309F088E790E002C088E590E0B6010CC08A2D3B
S1130A00867851F0A1FE02C08BE201C080E2A7FC0F
S1130A108DE2B60190E063D0891430F4B60180E32E
S1130A2090E05DD09A94F8CF8A94F301E80DF11D1B
S1130A308081B60190E053D08110F6CF222009F4D2
S1130A404ECEB60180E290E04AD02A94F7CFF60168
S1130A508681978102C08FEF9FEF2B960FB6F89493
S1130A60DEBF0FBECDBFDF91CF911F910F91FF90DD
S1130A70EF90DF90CF90BF90AF909F908F907F903A
S1130A806F905F904F903F902F90089599278827FB
S1130A900895FC010590615070400110D8F78095CD
S1130AA090958E0F9F1F0895FC0161507040019036
S1130AB00110D8F7809590958E0F9F1F0895DC0143
S1130AC0FC01672F71917723E1F7329704C07C9181
S1130AD06D9370836291AE17BF07C8F308950F93A7
S1130AE01F93CF93DF93FB01238121FD03C08FEF7D
S1130AF09FEF2CC022FF16C0468157812481358187
S1130B004217530744F4A081B1819D012F5F3F4FE9
S1130B10318320838C93268137812F5F3F4F378326
S1130B20268314C08B01EC01FB010084F185E02DC8
S1130B301995892BE1F6D80116968D919C911797FA
S1130B40019617969C938E931697CE01DF91CF91C1
S1130B501F910F910895FA01AA27283051F12031ED
S1130B6081F1E8946F936E7F6E5F7F4F8F4F9F4F3D
S1130B70AF4FB1E03ED0B4E03CD0670F781F891F7F
S1130B809A1FA11D680F791F8A1F911DA11D6A0F4D
S1130B90711D811D911DA11D20D009F468943F9100
S1130BA02AE0269F11243019305D3193DEF6CF01FF
S1130BB00895462F4770405D4193B3E00FD0C9F7C5
S1130BC0F6CF462F4F70405D4A3318F0495D31FD32
S1130BD04052419302D0A9F7EACFB4E0A695979585
S1130BE0879577956795BA95C9F70097610571055B
S1130BF008959B01AC010A2E0694579547953795A5
S1130C002795BA95C9F7620F731F841F951FA01DFE
S1090C100895F894FFCFE3
S1130C1600000003000000006D02000000005052B6
S1130C264F4752414D204552524F52200A0D00253E
S1130C366320000A0D48656C6C6F20776F72640A36
S1130C460D0056616C7565206F6620613A20256437
S1130C56200A0D0056616C7565206F6620643A2083
S1130C662569200A0D0056616C7565206F6620653E
S1130C763A202564200A0D00537472696E67206F4A
S1130C8675747075743A202573200A0D00486F64D4
S1130C966E6F74613D256400537072696E746620CC
S1130CA66F75747075743A202573200A0D005661A9
S1130CB66C7565206F6620673A202564200A0D004E
S1130CC641646472657373206F6620673A202564F5
S1110CD6200A0D00486F646E6F74613D0000CB
S9030000FC
