:10000000A4C00000B9C00000B7C00000B5C0000027
:10001000B3C00000B1C00000C7C00000ADC0000008
:10002000ABC00000A9C00000A7C00000A5C0000030
:10003000A3C00000A1C000009FC000009DC0000040
:100040009BC00000DBC0000097C0000095C000000E
:1000500093C0000091C000008FC000008DC0000060
:100060008BC0000089C0000087C0000085C0000070
:1000700083C0000081C000007FC000007DC0000080
:100080007BC0000079C0000077C0000075C0000090
:1000900073C0000071C000006FC000006DC00000A0
:1000A0006BC0000069C0000067C0000065C00000B0
:1000B00063C0000061C000005FC000005DC00000C0
:1000C0005BC0000059C0000057C0000055C00000D0
:1000D00053C0000051C000004FC000004DC00000E0
:1000E0004BC0000049C0000047C0000045C00000F0
:1000F00043C0000041C000003FC000003DC0000000
:100100003BC0000039C0000037C0000035C000000F
:1001100033C0000031C000002FC000002DC000001F
:100120002BC0000029C0000027C0000025C000002F
:1001300023C000009301A4019B01A401A40141017B
:100140004D0157015B018501890111241FBECFEFCD
:10015000D1E8DEBFCDBF00E00CBF13E0A0E0B2E00D
:10016000EAE2F5E000E00BBF02C007900D92A23575
:10017000B107D9F769D0D7C143CF80E096E936C13E
:1001800008958DB18F7D8DB98EB180628EB9EAE60A
:10019000F0E080818860808380818B7F80838DB355
:1001A00080628DBB789408951F920F920FB60F92C4
:1001B00011240BB60F922F933F934F935F936F933E
:1001C0007F938F939F93AF93BF93EF93FF93659923
:1001D00002C081E31DD1FF91EF91BF91AF919F913B
:1001E0008F917F916F915F914F913F912F910F90E0
:1001F0000BBE0F900FBE0F901F9018951F920F927D
:100200000FB60F9211240F900FBE0F901F901895EC
:1002100080E092E004D18CE092E001D187E292E0AC
:10022000FED082E492E0FBD08CE592E0F8D081E74A
:1002300092E0F5D085E892E0F2D087EA92E0EFD044
:1002400089EC92E0ECC008950F931F93CF93DF9356
:1002500094DF97DF84B1806184B982E3A3D0D2E3D5
:1002600001E010E074C0D4DFEAD090E0FC01BB975D
:10027000EB30F10508F068C08827E656FF4F8F4F36
:1002800014C186ED92E0CBD000E010E060C08C2F6E
:10029000BFD080E2BDD0CF5F01C0C1E6CB37B8F39D
:1002A00056C08C2FB5D080E2B3D0CF5F01C0C1E47F
:1002B000CB35B8F34CC08EED92E0B1D084B1806400
:1002C00084B920E030E01AC085B1806485B94FEF71
:1002D00084E39CE0415080409040E1F700C0000082
:1002E00085B18F7B85B94FEF84E39CE0415080401E
:1002F0009040E1F700C000002F5F3F4F23303105F1
:100300001CF384B18F7B84B922C082EF92E087D046
:100310001EC084B1806284B987EF92E080D080EA09
:1003200097E020D014C0D111DA508D2F3BD087E058
:1003300093E075D00CC0D43608F4D65F8D2F32D040
:1003400085E293E06CD003C083E493E068D00115AC
:10035000110509F088CF80E090E0DF91CF911F91E7
:100360000F910895CF93DF93F894A0E8B0E01C922A
:10037000E1E8F0E01082CFE6D0E0188290938900A7
:1003800080938800808188608083808185608083FD
:100390008881826088838C9180648C937894DF91CB
:1003A000CF910895CF93DF93F894E0EBF0E01082C3
:1003B000C1EBD0E01882109270002FEF829FC00135
:1003C000112464E670E042D06093B30080818260C3
:1003D000808380818160808388818560888380813B
:1003E000806880837894DF91CF9108959C0140E0EC
:1003F00050E060E271EA87E090E03BD021503109A3
:100400003093CD002093CC0088E18093C9000895FB
:100410009091C80095FFFCCF8093CE000895CF93B4
:10042000DF93EC018091C80085FFFCCF02C0F0DFB4
:10043000219688818111FBCFDF91CF910895809122
:10044000C8008823E4F78091CE00089597FB072E1B
:1004500016F4009406D077FD08D02FD007FC05D005
:100460003EF4909581959F4F0895709561957F4FCB
:100470000895052E97FB16F400940FD057FD05D074
:1004800030D007FC02D046F408C050954095309516
:1004900021953F4F4F4F5F4F0895909580957095F0
:1004A00061957F4F8F4F9F4F0895EE0FFF1F881F5D
:1004B0008BBF0790F691E02D1994AA1BBB1B51E14D
:1004C00007C0AA1FBB1FA617B70710F0A61BB70BC4
:1004D000881F991F5A95A9F780959095BC01CD0169
:1004E0000895A1E21A2EAA1BBB1BFD010DC0AA1F75
:1004F000BB1FEE1FFF1FA217B307E407F50720F08D
:10050000A21BB30BE40BF50B661F771F881F991F07
:100510001A9469F760957095809590959B01AC0150
:0A052000BD01CF010895F894FFCF4C
:10052A000A0D0A0D4D454E553A0A0D0031203D205F
:10053A005072696E74206C6F77657220616C706896
:10054A00616265740A0D0032203D205072696E7432
:10055A0020757070657220616C7068616265740ADA
:10056A000D0033203D20426C696E6B203378207772
:10057A00697468204C454420320A0D0034203D201D
:10058A00436C656172207465726D696E616C0A0DE7
:10059A000035203D2047656E657261746520322002
:1005AA00487A0A0D002B203D20496E6372656173FB
:1005BA0065206272696768746E657373206F66205E
:1005CA004C4544300A0D002D203D20446563726578
:1005DA00617365206272696768746E657373206FF0
:1005EA0066204C4544300A0D0030203D204578698C
:1005FA00740A0D0A0D0051756974696E6700426CC0
:10060A00696E6B696E672077697468204C4544206F
:10061A0032001B5B324A0047656E65726174696E0F
:10062A0067203220487A004272696768746E65737F
:10063A0073206F66204C4544203020696E637265D2
:10064A0061736564004272696768746E65737320CA
:10065A006F66204C4544203020646563726561737F
:10066A00656400496E76616C6964206F7074696FA5
:02067A006E0010
:00000001FF
