S01000004C574D5F4D5353592E7372656379
S113000099C00000B6C00000B4C00000B2C0000037
S1130010B0C00000AEC00000ACC00000AAC0000028
S1130020A8C00000A6C00000A4C00000A2C0000038
S1130030A0C00000EFC000009CC000009AC00000F7
S113004098C0000096C0000094C0000092C0000058
S113005090C000008EC000008CC000008AC0000068
S113006088C0000086C0000084C0000082C0000078
S113007080C000007EC000007CC000007AC0000088
S113008078C0000076C0000074C0000072C0000098
S113009040C1000022C100006CC000006AC0000022
S11300A068C0000066C00000A4C0000062C0000078
S11300B060C000005EC000005CC000005AC00000C8
S11300C058C0000056C0000054C0000052C00000D8
S11300D050C000004EC000004CC000004AC00000E8
S11300E048C0000046C0000044C0000042C00000F8
S11300F040C000003EC000003CC000003AC0000008
S113010038C0000036C0000034C0000032C0000017
S113011030C000002EC000002CC000002AC0000027
S113012028C0000026C0000024C0000022C0000037
S113013020C0000011241FBECFEFD1E8DEBFCDBF29
S113014000E00CBF12E0A0E0B2E0E0E8FEE000E076
S11301500BBF02C007900D92A431B107D9F728E173
S1130160A4E1B2E001C01D92A83AB207E1F702D0BF
S113017085C646CF0ED360E076E980E090E059D0A2
S113018080E092E09093A5188093A4188EE092E00A
S11301909F938F93B3D30F900F9080E090E00895D6
S11301A014BE0FB6F894A89580916000886180937E
S11301B06000109260000FBEE1E6F0E080E880830A
S11301C01082789401C008951092791880E197E222
S11301D09093A9008093A800E1EAF0E088E080838E
S11301E0808182608083E2E7F0E0808182608083A6
S11301F008951F920F920FB60F9211248F9380913E
S113020079188F5F809379188F910F900FBE0F909C
S11302101F9018951F920F920FB60F9211248F936F
S113022081E0809314028F910F900FBE0F901F9066
S11302301895DC01CB01880F991FAA1FBB1F880FDB
S1130240991FAA1FBB1F9C01AD01220F331F441F1E
S1130250551F220F331F441F551F60E074E284EFC3
S113026090E02AD3BA01A9014150510961097109E9
S1130270BB27A72F962F852F8093CD004093CC00CA
S113028082E08093C80088E98093C90086E0809367
S1130290CA00E3E4F5E082EB93E09187808780E98C
S11302A091E09583848317821682118210821382CF
S11302B01282E8EAF3E027E132E031872087958370
S11302C0848317821682118210821382128281E043
S11302D0809316021092150208951F920F920FB682
S11302E00F9211240BB60F928F93EF93FF9381E03B
S11302F080931602E9ECF0E080818F7D8083FF918A
S1130300EF918F910F900BBE0F900FBE0F901F9027
S113031018951F920F920FB60F9211240BB60F92DD
S11303202F933F934F935F936F937F938F939F93F9
S1130330AF93BF93EF93FF938091C8002091CE00B9
S11303408C7159F5E8EAF3E04681578184819581FF
S11303504817590711F14085518582819381BC0169
S11303606F5F7F4F73836283DA01A80FB91F2C93E9
S113037022813381848195812817390721F41092D1
S1130380AB031092AA03E8EAF3E086819781019611
S11303909783868381E080931502FF91EF91BF914B
S11303A0AF919F918F917F916F915F914F913F9109
S11303B02F910F900BBE0F900FBE0F901F901895AA
S11303C0E8ECF0E0908195FFFDCF8093CE0080E0D3
S11303D090E00895EAE7F8E1148215821182108210
S11303E017A216A2E0E8F8E180EA98E111921192CE
S11303F0E817F907D9F75CD1E0D011D00BD03FC092
S11304000895E82FF0E0EE0FFF1FE058F74E7183D8
S11304106083089510924E0510924D050895EFE4FF
S1130420F5E08DE595E11082E757FF4FE817F907EE
S1130430D1F70895009741F0FC01E757FF4F85E19C
S1130440ED35F80718F012C0EFE4F5E08081882359
S113045021F00FC0808181110FC0E757FF4F85E164
S1130460ED35F807B8F380E090E0089580E090E07F
S113047008958E2F9F2F08958E2F9F2F0895AEE5F8
S1130480B5E180E090E04FEF5FEF11965C934E93FF
S1130490FC01EE0FFF1FEE0FFF1FEE0FFF1FE81B07
S11304A0F90BE35AFA4E20812E7F208314961C9276
S11304B01497019617968436910539F708950F938A
S11304C01F93CF93DF93EEE5F5E120E030E0062FB4
S11304D010E04081518148175907B1F4D901AA0F9E
S11304E0BB1FAA0FBB1FAA0FBB1FA21BB30BA35A90
S11304F0BA4E4C9146954170C42F40E0D42FC0179A
S1130500D10711F4CD0108C02F5F3F4F3796243631
S11305103105F9F680E090E0DF91CF911F910F91C2
S11305200895FC01808180FD05C08FEF9FEF9283C9
S1130530818315820895C3DF009709F0F2CF0895EF
S1130540FC012185263049F40780F085E02D658182
S113055083819481F0DF81E0089580E00895DC01D7
S113056019962C911997222371F01796ED91FC910D
S113057018972081222319F0213019F006C0BBC03E
S11305800895DECF089580E0089580E00895BC01C9
S1130590EAE2F8E12CE538E140E051E0908199236A
S11305A019F091509083452F3596E217F307B1F770
S11305B0442311F0CB0175C10895EAE2F8E18CE51A
S11305C098E110823596E817F907D9F7E9E1F8E1DF
S11305D084E690E0A0E0B0E086839783A087B187AB
S11305E0128687EC92E0948783876FEA72E080E05A
S11305F008CF0895EF92FF920F931F93CF937C013E
S113060010E080E090E001E0C3E113C0FC01208130
S1130610213179F4EC57FF4F208131812150310988
S113062031832083232B21F4FC01C083102F01C0CC
S1130630102F00DF009751F7112311F0C70131D1BA
S1130640CF911F910F91FF90EF900895EF92FF9239
S11306500F931F93CF93DF937C0110E080E090E031
S113066001E0D7E1C0E116C0FC012081263191F4FC
S1130670EC57FF4F20813181215031093183208390
S1130680232B39F4FC01D083ED57FF4FC083102F87
S113069001C0102FCFDE009739F7112311F0C701E5
S11306A000D1DF91CF911F910F91FF90EF900895AA
S11306B01092731810927218E5E6F8E182E390E064
S11306C0A0E0B0E086839783A087B187128686E294
S11306D093E094878387E8E5F8E18AE090E0A0E07E
S11306E0B0E086839783A087B18712868AEF92E071
S11306F0948783870895CF93DF93FC01218523306A
S1130700D9F410C0FC012081263189F43485298173
S113071032130DC027E120832A81EA57FF4F20833B
S113072081E00BC0FC01C781D08580E090E082DECF
S1130730009741F780E001C080E0DF91CF910895F8
S113074093E090934201E1E4F1E090819F7198304D
S1130750E1F780934201E1E4F1E090819F71891314
S1130760FCCF0895E9E3F1E08081816080831092F9
S113077075181092741881E08093761888E0E0DF91
S11307808BEE80935601ECE4F1E0808180688083F5
S1130790089506DD67D0E6DF1DCE08950F931F93FD
S11307A0CF93DF93EC01809177189091781800979C
S11307B009F445C04E815F8168857985FC01028119
S11307C0138124813581401751076207730760F054
S11307D0DC0117C002811381248135814017510740
S11307E06207730768F403C0FC01A0E0B0E0041BD7
S11307F0150B260B370B02831383248335830AC01E
S1130800DF01401B510B620B730BED91FC911197AF
S1130810309701F74A835B836C837D83109741F0A3
S11308208D919C91119799838883CD93DC9315C006
S113083099838883D0937818C09377180EC019824F
S113084018828E819F81A885B9858A839B83AC8316
S1130850BD83D0937818C0937718DF91CF911F91FF
S11308600F91089510927818109277180895E091D6
S11308707718F0917818309771F0E817F90721F498
S11308800CC08E179F0759F00190F081E02D30972E
S1130890C1F780E0089580E0089581E0089581E043
S11308A00895CF93DF93EC01E2DF811102C0CE0102
S11308B075DFDF91CF910895A1E21A2EAA1BBB1B0D
S11308C0FD010DC0AA1FBB1FEE1FFF1FA217B30718
S11308D0E407F50720F0A21BB30BE40BF50B661F2E
S11308E0771F881F991F1A9469F7609570958095F2
S11308F090959B01AC01BD01CF010895CF93DF9387
S1130900CDB7DEB7AE014A5F5F4FFA0161917191D5
S1130910AF018091A4189091A51803D0DF91CF91D5
S113092008952F923F924F925F926F927F928F928F
S11309309F92AF92BF92CF92DF92EF92FF920F936A
S11309401F93CF93DF93CDB7DEB72B970FB6F894F1
S1130950DEBF0FBECDBF6C017B018A01FC01178293
S11309601682838181FFBFC1CE0101963C01F6014D
S11309709381F70193FD859193FF81917F018823F2
S113098009F4ADC1853239F493FD859193FF8191CA
S11309907F01853221F4B60190E0D6D1E8CF912CC5
S11309A0212C312CFFE1F315D8F08B3279F038F497
S11309B0803279F08332A1F4232D20611DC08D3261
S11309C061F0803369F4232D216016C0832D826089
S11309D0382EE32DE4603E2E2AC0F32DF8601DC0AE
S11309E037FC2DC020ED280F2A3040F08E32B9F4A8
S11309F036FC75C1232D2064322E19C036FE06C084
S1130A008AE0989E200D1124922E11C0EAE02E9EB9
S1130A10200D1124222EF32DF0623F2E08C08C36B7
S1130A2021F4832D8068382E02C0883641F4F70102
S1130A3093FD859193FF81917F018111B3CF982F0D
S1130A409F7D9554933028F40C5F1F4F9FE3998347
S1130A500DC0833631F0833771F0833509F055C00A
S1130A6020C0F801808189830E5F1F4F88248394FE
S1130A70912C530112C02801F2E04F0E511CF801D1
S1130A80A080B18036FE03C0692D70E002C06FEF14
S1130A907FEFC5014ED14C018201F32DFF773F2E2C
S1130AA015C0280122E0420E511CF801A080B1803B
S1130AB036FE03C0692D70E002C06FEF7FEFC50101
S1130AC02DD14C01F32DF0683F2E820133FC19C067
S1130AD0822D90E088169906A0F4B60180E290E099
S1130AE033D12A94F5CFF50137FC859137FE8191F6
S1130AF05F01B60190E028D121102A9421E0821AE6
S1130B0091088114910479F7E1C0843611F0893693
S1130B1039F5F80137FE07C06081718182819381C4
S1130B200C5F1F4F08C060817181072E000C880B79
S1130B30990B0E5F1F4FF32DFF763F2E97FF09C0D1
S1130B4090958095709561957F4F8F4F9F4FF0687A
S1130B503F2E2AE030E0A30133D1882E861844C00A
S1130B60853731F4232D2F7EB22E2AE030E025C0C4
S1130B70932D997FB92E8F36C1F018F4883579F00A
S1130B80AEC0803719F0883721F0A9C0E92FE061A1
S1130B90BE2EB4FE0DC0FB2DF460BF2E09C034FE82
S1130BA00AC0292F2660B22E06C028E030E005C016
S1130BB020E130E002C020E132E0F801B7FE07C0D6
S1130BC060817181828193810C5F1F4F06C06081B7
S1130BD0718180E090E00E5F1F4FA301F1D0882E59
S1130BE08618FB2DFF773F2E36FE0DC0232D2E7F5A
S1130BF0A22E891458F434FE0BC032FC09C0832D94
S1130C008E7EA82E05C0B82CA32C03C0B82C01C01E
S1130C10B92CA4FE0FC0FE01E80DF11D80818033C4
S1130C2021F49A2D997EA92E09C0A2FE06C0B39480
S1130C30B39404C08A2D867809F0B394A3FC10C041
S1130C40A0FE06C0B21480F4280C922C9B180DC090
S1130C50B21458F4B60180E290E076D0B394F8CFA1
S1130C60B21418F42B1802C0982C212CA4FE0FC027
S1130C70B60180E390E068D0A2FE16C0A1FC03C0D8
S1130C8088E790E002C088E590E0B6010CC08A2DA8
S1130C90867851F0A1FE02C08BE201C080E2A7FC7D
S1130CA08DE2B60190E050D0891430F4B60180E3AF
S1130CB090E04AD09A94F8CF8A94F301E80DF11D9C
S1130CC08081B60190E040D08110F6CF222009F453
S1130CD04ECEB60180E290E037D02A94F7CFF601E9
S1130CE08681978102C08FEF9FEF2B960FB6F89401
S1130CF0DEBF0FBECDBFDF91CF911F910F91FF904B
S1130D00EF90DF90CF90BF90AF909F908F907F90A7
S1130D106F905F904F903F902F900895FC01059045
S1130D20615070400110D8F7809590958E0F9F1FE9
S1130D300895FC016150704001900110D8F780952E
S1130D4090958E0F9F1F08950F931F93CF93DF935A
S1130D50FB01238121FD03C08FEF9FEF2CC022FFF5
S1130D6016C046815781248135814217530744F4C4
S1130D70A081B1819D012F5F3F4F318320838C93EC
S1130D80268137812F5F3F4F3783268314C08B0121
S1130D90EC01FB010084F185E02D1995892BE1F626
S1130DA0D80116968D919C911797019617969C934E
S1130DB08E931697CE01DF91CF911F910F910895D5
S1130DC0FA01AA27283051F1203181F1E8946F9378
S1130DD06E7F6E5F7F4F8F4F9F4FAF4FB1E03ED01E
S1130DE0B4E03CD0670F781F891F9A1FA11D680FBC
S1130DF0791F8A1F911DA11D6A0F711D811D911DEF
S1130E00A11D20D009F468943F912AE0269F112463
S1130E103019305D3193DEF6CF010895462F4770C7
S1130E20405D4193B3E00FD0C9F7F6CF462F4F7022
S1130E30405D4A3318F0495D31FD4052419302D080
S1130E40A9F7EACFB4E0A695979587957795679526
S1130E50BA95C9F700976105710508959B01AC0126
S1130E600A2E06945795479537952795BA95C9F74D
S1130E70620F731F841F951FA01D0895F894FFCF60
S1130E800000000300000000E001000000005354D3
S1070E904152540073
S9030000FC
