S00C00004C4142322E7372656317
S113000099C00000AEC00000ACC00000AAC000004F
S1130010A8C00000A6C00000CFC00000A2C000001D
S1130020A0C000009EC000009CC000009AC0000058
S113003098C0000096C0000094C0000092C0000068
S113004090C000008EC000008CC000008AC0000078
S113005088C0000086C0000084C0000082C0000088
S113006080C000007EC000007CC000007AC0000098
S113007078C0000076C0000074C0000072C00000A8
S113008070C000006EC000006CC000006AC00000B8
S113009068C0000066C0000064C0000062C00000C8
S11300A060C000005EC000005CC000005AC00000D8
S11300B058C0000056C0000054C0000052C00000E8
S11300C050C000004EC000004CC000004AC00000F8
S11300D048C0000046C0000044C0000042C0000008
S11300E040C000003EC000003CC000003AC0000018
S11300F038C0000036C0000034C0000032C0000028
S113010030C000002EC000002CC000002AC0000037
S113011028C0000026C0000024C0000022C0000047
S113012020C000001EC000001CC000001AC0000057
S113013018C0000011241FBECFEFD1E8DEBFCDBF31
S113014000E00CBF12E0A0E0B2E0E6ECF3E000E077
S11301500BBF02C007900D92AE3AB107D9F756D043
S113016030C14ECF80E096E9BEC0089580E092E0B1
S1130170D3D08CE092E0D0D087E292E0CDD082E47C
S113018092E0CAD08CE592E0C7D081E792E0C4C087
S113019008958DB18F7D8DB98EB180628EB9EAE6F6
S11301A0F0E080818860808380818B7F80838DB341
S11301B080628DBB789408951F920F920FB60F92B0
S11301C011240BB60F922F933F934F935F936F932A
S11301D07F938F939F93AF93BF93EF93FF9365990F
S11301E002C081E392D0FF91EF91BF91AF919F91B3
S11301F08F917F916F915F914F913F912F910F90CC
S11302000BBE0F900FBE0F901F9018950F931F9366
S1130210CF93A8DFBEDF01E010E05BC0A7DF8CD086
S1130220823311F128F4803349F0813399F04EC0C0
S11302308333F1F0843309F445C048C08EE792E07B
S11302406BD000E010E045C08C2F5FD080E25DD021
S1130250CF5F01C0C1E6CB37B8F33BC08C2F55D07C
S113026080E253D0CF5F01C0C1E4CB35B8F331C0D5
S113027086E892E051D084B1806484B920E030E013
S11302801AC085B1806485B94FEF84E39CE0415086
S113029080409040E1F700C0000085B18F7B85B9B4
S11302A04FEF84E39CE0415080409040E1F700C070
S11302B000002F5F3F4F233031051CF384B18F7B47
S11302C084B907C08AE992E027D003C08FE992E09D
S11302D023D00115110509F0A1CF80E090E0CF9162
S11302E01F910F9108959C0140E050E060E271EA93
S11302F087E090E028D0215031093093CD0020933D
S1130300CC0088E18093C90008959091C80095FFBE
S1130310FCCF8093CE000895CF93DF93EC018091BE
S1130320C80085FFFCCF02C0F0DF219688818111CF
S1130330FBCFDF91CF9108958091C8008823E4F723
S11303408091CE000895052E97FB16F400940FD0EB
S113035057FD05D014D007FC02D046F408C05095D0
S11303604095309521953F4F4F4F5F4F089590959D
S11303708095709561957F4F8F4F9F4F0895A1E2AF
S11303801A2EAA1BBB1BFD010DC0AA1FBB1FEE1F0B
S1130390FF1FA217B307E407F50720F0A21BB30B56
S11303A0E40BF50B661F771F881F991F1A9469F7D2
S11303B060957095809590959B01AC01BD01CF012E
S10903C00895F894FFCF3C
S11303C60A0D0A0D4D454E553A0A0D0031203D20C1
S11303D65072696E74206C6F77657220616C7068F8
S11303E6616265740A0D0032203D205072696E7494
S11303F620757070657220616C7068616265740A3C
S11304060D0033203D20426C696E6B2033782077D3
S1130416697468204C454420320A0D0034203D207E
S1130426436C656172207465726D696E616C0A0D48
S11304360030203D20457869740A0D0A0D00517577
S11304466974696E6700426C696E6B696E672077C2
S1130456697468204C45442032001B5B324A0049CB
S11104666E76616C6964206F7074696F6E004D
S9030000FC
