S01000004C574D5F4D5353592E7372656379
S113000099C00000C5C00000C3C00000C1C000000A
S1130010BFC00000BDC00000BBC00000B9C00000EC
S1130020B7C00000B5C00000B3C00000B1C00000FC
S1130030AFC00000AAC10000ABC00000A9C000000E
S1130040A7C00000A5C00000A3C00000A1C000001C
S11300509FC00000ADC000009BC0000099C000001C
S113006097C0000095C0000093C0000091C000003C
S11300708FC000008DC000008BC0000089C000004C
S113008087C0000085C0000083C0000081C000005C
S1130090FBC10000DDC100007BC0000079C000008E
S11300A077C0000075C000005FC1000071C000008F
S11300B06FC000006DC000006BC0000069C000008C
S11300C067C0000065C0000063C0000061C000009C
S11300D05FC000005DC000005BC0000059C00000AC
S11300E057C0000055C0000053C0000051C00000BC
S11300F04FC000004DC000004BC0000049C00000CC
S113010047C0000045C0000043C0000041C00000DB
S11301103FC000003DC000003BC0000039C00000EB
S113012037C0000035C0000033C0000031C00000FB
S11301302FC0000011241FBECFEFD1E8DEBFCDBF1A
S113014000E00CBF84B78093D41E14BE0FB6F8949D
S1130150A89580916000886180936000109260008F
S11301600FBE12E0A0E0B2E0EEE0F0E100E00BBF71
S113017002C007900D92AA33B107D9F72EE1AAE382
S1130180B2E001C01D92A43DB207E1F79DD03DC786
S113019037CF5C9808955C9A08951EBC0DB407FE91
S11301A0FDCF8EB508958EBD0DB407FEFDCF089525
S11301B01F920F920FB60F9211248F939F93AF93B8
S11301C0BF9380919F1A9091A01AA091A11AB09107
S11301D0A21A0196A11DB11D80939F1A9093A01A93
S11301E0A093A11AB093A21ABF91AF919F918F913E
S11301F00F900FBE0F901F901895EAE7F0E0108261
S1130200808187608083ACE7B0E08C9180648C93BC
S11302108081806880838081806480830895ECE796
S1130220F0E09081907E90839081892B8083EAE72F
S1130230F0E0808180648083808186FDFDCF8091A1
S1130240780090917900089582E084BD83E085BDB3
S113025089EF87BDEEE6F0E08081826080830895B7
S1130260CF9397DF9ADFC82F96DF1F92CF938EE04C
S113027092E09F938F9309D40F900F900F900F905B
S1130280CF910895CF9385DF8AEA8EBD0DB407FE22
S1130290FDCF83DFC82F7FDF1F92CF9381E292E0EF
S11302A09F938F93F2D30F900F900F900F90CF9155
S11302B008956FDF8FEF77DF8FE19EE40197F1F709
S11302C000C0000068CF08952BD360E076E980E099
S11302D090E06AD080E092E09093D11E8093D01E8B
S11302E099E288E10FB6F894A895809360000FBE58
S11302F090936000A895A8DF80DF80E090DF3C9AAF
S113030044983D98459A789420D1D3DFA9DFBADF89
S113031080E090E0089514BE0FB6F894A8958091FB
S11303206000886180936000109260000FBEE1E677
S1130330F0E080E880831082789401C008951092E0
S1130340A51E80E197E29093A9008093A800E1EABA
S1130350F0E088E08083808182608083E2E7F0E0DF
S113036080818260808308951F920F920FB60F924E
S113037011248F938091A51E8F5F8093A51E8F916A
S11303800F900FBE0F901F9018951F920F920FB6EB
S11303900F9211248F9381E080933A028F910F90F2
S11303A00FBE0F901F901895DC01CB01880F991F89
S11303B0AA1FBB1F880F991FAA1FBB1F9C01AD0159
S11303C0220F331F441F551F220F331F441F551F75
S11303D060E074E284EF90E036D3BA01A9014150A1
S11303E0510961097109BB27A72F962F852F809387
S11303F0CD004093CC0082E08093C80088E98093CC
S1130400C90086E08093CA00E9E6F5E088ED93E050
S11304109187808780E991E095838483178216828F
S11304201182108213821282EEECF3E02DE332E0AB
S113043031872087958384831782168211821082E4
S11304401382128281E080933C0210923B02089551
S11304501F920F920FB60F9211240BB60F928F9327
S1130460EF93FF9381E080933C02E9ECF0E080811C
S11304708F7D8083FF91EF918F910F900BBE0F9032
S11304800FBE0F901F9018951F920F920FB60F92E8
S113049011240BB60F922F933F934F935F936F9357
S11304A07F938F939F93AF93BF93EF93FF93809129
S11304B0C8002091CE008C7159F5EEECF3E0468132
S11304C05781848195814817590711F140855185D9
S11304D082819381BC016F5F7F4F73836283DA01F2
S11304E0A80FB91F2C932281338184819581281709
S11304F0390721F41092D1031092D003EEECF3E00B
S11305008681978101969783868381E080933B025D
S1130510FF91EF91BF91AF919F918F917F916F91D7
S11305205F914F913F912F910F900BBE0F900FBE93
S11305300F901F901895E8ECF0E0908195FFFDCFA7
S11305408093CE0080E090E00895249A5C9A84B170
S1130550866184B985B1866085B980E58CBD1DBC92
S11305600895E6EAFEE1148215821182108217A230
S113057016A2ECEAFEE18CEC9EE111921192E817CE
S1130580F907D9F75CD1E0D011D00BD03FC0089562
S1130590E82FF0E0EE0FFF1FE455F14E7183608306
S11305A0089510927405109273050895E5E7F5E037
S11305B083E895E11082E757FF4FE817F907D1F771
S11305C00895009741F0FC01E757FF4F85E1E338B8
S11305D0F80718F012C0E5E7F5E08081882321F0E0
S11305E00FC0808181110FC0E757FF4F85E1E338C9
S11305F0F807B8F380E090E0089580E090E0089573
S11306008E2F9F2F08958E2F9F2F0895A4E8B5E174
S113061080E090E04FEF5FEF11965C934E93FC0106
S1130620EE0FFF1FEE0FFF1FEE0FFF1FE81BF90B6E
S1130630ED57FA4E20812E7F208314961C92149736
S1130640019617968436910539F708950F931F93F1
S1130650CF93DF93E4E8F5E120E030E0062F10E0EB
S11306604081518148175907B1F4D901AA0FBB1F22
S1130670AA0FBB1FAA0FBB1FA21BB30BAD57BA4EC9
S11306804C9146954170C42F40E0D42FC017D10738
S113069011F4CD0108C02F5F3F4F37962436310542
S11306A0F9F680E090E0DF91CF911F910F910895CA
S11306B0FC01808180FD05C08FEF9FEF92838183D1
S11306C015820895C3DF009709F0F2CF0895FC0165
S11306D02185263049F40780F085E02D65818381EA
S11306E09481F0DF81E0089580E00895DC0119969B
S11306F02C911997222371F01796ED91FC9118977C
S11307002081222319F0213019F006C0BBC00895BE
S1130710DECF089580E0089580E00895BC01E0E50F
S1130720F8E122E838E140E051E09081992319F0A2
S113073091509083452F3596E217F307B1F7442380
S113074011F0CB0175C10895E0E5F8E182E898E184
S113075010823596E817F907D9F7EFE3F8E184E654
S113076090E0A0E0B0E086839783A087B1871286EB
S11307708EE893E09487838766E773E080E008CF90
S11307800895EF92FF920F931F93CF937C0110E093
S113079080E090E001E0C3E113C0FC01208121313D
S11307A079F4EC57FF4F2081318121503109318395
S11307B02083232B21F4FC01C083102F01C0102FB0
S11307C000DF009751F7112311F0C70131D1CF9108
S11307D01F910F91FF90EF900895EF92FF920F9366
S11307E01F93CF93DF937C0110E080E090E001E061
S11307F0D7E1C0E116C0FC012081263191F4EC5709
S1130800FF4F208131812150310931832083232BF3
S113081039F4FC01D083ED57FF4FC083102F01C082
S1130820102FCFDE009739F7112311F0C70100D143
S1130830DF91CF911F910F91FF90EF900895109247
S1130840991810929818EBE8F8E182E390E0A0E0A0
S1130850B0E086839783A087B18712868DEE93E0FC
S113086094878387EEE7F8E18AE090E0A0E0B0E0C7
S113087086839783A087B187128681EC93E094875F
S113088083870895CF93DF93FC0121852330D9F426
S113089010C0FC012081263189F43485298132136A
S11308A00DC027E120832A81EA57FF4F208381E08E
S11308B00BC0FC01C781D08580E090E082DE009708
S11308C041F780E001C080E0DF91CF91089593E08B
S11308D090934201E1E4F1E090819F719830E1F757
S11308E080934201E1E4F1E090819F718913FCCF90
S11308F00895E9E3F1E080818160808310929B1880
S113090010929A1881E080939C1888E0E0DF8BEEC7
S113091080935601ECE4F1E080818068808308953F
S1130920FADC67D0E6DF1DCE08950F931F93CF93B3
S1130930DF93EC0180919D1890919E18009709F423
S113094045C04E815F8168857985FC0102811381F0
S113095024813581401751076207730760F0DC0179
S113096017C0028113812481358140175107620722
S1130970730768F403C0FC01A0E0B0E0041B150B8E
S1130980260B370B02831383248335830AC0DF01CC
S1130990401B510B620B730BED91FC911197309737
S11309A001F74A835B836C837D83109741F08D91BB
S11309B09C91119799838883CD93DC9315C0998377
S11309C08883D0939E18C0939D180EC019821882F4
S11309D08E819F81A885B9858A839B83AC83BD83DF
S11309E0D0939E18C0939D18DF91CF911F910F91C2
S11309F0089510929E1810929D180895E0919D18E4
S1130A00F0919E18309771F0E817F90721F40CC0A3
S1130A108E179F0759F00190F081E02D3097C1F7B0
S1130A2080E0089580E0089581E0089581E00895CC
S1130A30CF93DF93EC01E2DF811102C0CE0175DFB9
S1130A40DF91CF910895A1E21A2EAA1BBB1BFD01D1
S1130A500DC0AA1FBB1FEE1FFF1FA217B307E40799
S1130A60F50720F0A21BB30BE40BF50B661F771FF1
S1130A70881F991F1A9469F76095709580959095D1
S1130A809B01AC01BD01CF010895CF93DF93CDB796
S1130A90DEB7AE014A5F5F4FFA0161917191AF0118
S1130AA08091D01E9091D11E03D0DF91CF910895F3
S1130AB02F923F924F925F926F927F928F929F926A
S1130AC0AF92BF92CF92DF92EF92FF920F931F9358
S1130AD0CF93DF93CDB7DEB72B970FB6F894DEBF75
S1130AE00FBECDBF6C017B018A01FC011782168207
S1130AF0838181FFBFC1CE0101963C01F601938140
S1130B00F70193FD859193FF81917F01882309F477
S1130B10ADC1853239F493FD859193FF81917F01B5
S1130B20853221F4B60190E0D6D1E8CF912C212C66
S1130B30312CFFE1F315D8F08B3279F038F48032A0
S1130B4079F08332A1F4232D20611DC08D3261F030
S1130B50803369F4232D216016C0832D8260382EE2
S1130B60E32DE4603E2E2AC0F32DF8601DC037FC4F
S1130B702DC020ED280F2A3040F08E32B9F436FC17
S1130B8075C1232D2064322E19C036FE06C08AE0BA
S1130B90989E200D1124922E11C0EAE02E9E200D65
S1130BA01124222EF32DF0623F2E08C08C3621F43E
S1130BB0832D8068382E02C0883641F4F70193FDF6
S1130BC0859193FF81917F018111B3CF982F9F7DF0
S1130BD09554933028F40C5F1F4F9FE399830DC005
S1130BE0833631F0833771F0833509F055C020C066
S1130BF0F801808189830E5F1F4F88248394912C90
S1130C00530112C02801F2E04F0E511CF801A080DC
S1130C10B18036FE03C0692D70E002C06FEF7FEF34
S1130C20C5014ED14C018201F32DFF773F2E15C033
S1130C30280122E0420E511CF801A080B18036FE4A
S1130C4003C0692D70E002C06FEF7FEFC5012DD1A5
S1130C504C01F32DF0683F2E820133FC19C0822D24
S1130C6090E088169906A0F4B60180E290E033D1B2
S1130C702A94F5CFF50137FC859137FE81915F0108
S1130C80B60190E028D121102A9421E0821A91081B
S1130C908114910479F7E1C0843611F0893639F56D
S1130CA0F80137FE07C060817181828193810C5FF6
S1130CB01F4F08C060817181072E000C880B990BAF
S1130CC00E5F1F4FF32DFF763F2E97FF09C09095BF
S1130CD08095709561957F4F8F4F9F4FF0683F2EA1
S1130CE02AE030E0A30133D1882E861844C085372A
S1130CF031F4232D2F7EB22E2AE030E025C0932D2F
S1130D00997FB92E8F36C1F018F4883579F0AEC0CA
S1130D10803719F0883721F0A9C0E92FE061BE2E91
S1130D20B4FE0DC0FB2DF460BF2E09C034FE0AC012
S1130D30292F2660B22E06C028E030E005C020E14D
S1130D4030E002C020E132E0F801B7FE07C0608164
S1130D507181828193810C5F1F4F06C06081718114
S1130D6080E090E00E5F1F4FA301F1D0882E86181B
S1130D70FB2DFF773F2E36FE0DC0232D2E7FA22E96
S1130D80891458F434FE0BC032FC09C0832D8E7EC6
S1130D90A82E05C0B82CA32C03C0B82C01C0B92CB4
S1130DA0A4FE0FC0FE01E80DF11D8081803321F403
S1130DB09A2D997EA92E09C0A2FE06C0B394B394BD
S1130DC004C08A2D867809F0B394A3FC10C0A0FE59
S1130DD006C0B21480F4280C922C9B180DC0B214D7
S1130DE058F4B60180E290E076D0B394F8CFB21410
S1130DF018F42B1802C0982C212CA4FE0FC0B601A5
S1130E0080E390E068D0A2FE16C0A1FC03C088E78E
S1130E1090E002C088E590E0B6010CC08A2D867887
S1130E2051F0A1FE02C08BE201C080E2A7FC8DE27A
S1130E30B60190E050D0891430F4B60180E390E01C
S1130E404AD09A94F8CF8A94F301E80DF11D808179
S1130E50B60190E040D08110F6CF222009F44ECEA6
S1130E60B60180E290E037D02A94F7CFF60186816C
S1130E70978102C08FEF9FEF2B960FB6F894DEBFD9
S1130E800FBECDBFDF91CF911F910F91FF90EF90D7
S1130E90DF90CF90BF90AF909F908F907F906F9096
S1130EA05F904F903F902F900895FC010590615002
S1130EB070400110D8F7809590958E0F9F1F08956C
S1130EC0FC016150704001900110D8F78095909515
S1130ED08E0F9F1F08950F931F93CF93DF93FB01F2
S1130EE0238121FD03C08FEF9FEF2CC022FF16C08A
S1130EF046815781248135814217530744F4A081E8
S1130F00B1819D012F5F3F4F318320838C932681D4
S1130F1037812F5F3F4F3783268314C08B01EC0149
S1130F20FB010084F185E02D1995892BE1F6D801A8
S1130F3016968D919C911797019617969C938E9374
S1130F401697CE01DF91CF911F910F910895FA0169
S1130F50AA27283051F1203181F1E8946F936E7FF4
S1130F606E5F7F4F8F4F9F4FAF4FB1E03ED0B4E0E5
S1130F703CD0670F781F891F9A1FA11D680F791F26
S1130F808A1F911DA11D6A0F711D811D911DA11D37
S1130F9020D009F468943F912AE0269F1124301947
S1130FA0305D3193DEF6CF010895462F4770405DE2
S1130FB04193B3E00FD0C9F7F6CF462F4F70405D91
S1130FC04A3318F0495D31FD4052419302D0A9F7EC
S1130FD0EACFB4E0A6959795879577956795BA95E6
S1130FE0C9F700976105710508959B01AC010A2EAC
S1130FF006945795479537952795BA95C9F7620F83
S1111000731F841F951FA01D0895F894FFCF41
S113100E00000003000000009B02000000005735A2
S113101E3530302056657273696F6E3A2025640A36
S113102E0052656164206261636B2076616C756544
S10D103E3A203078253032580A00B9
S9030000FC
